{
  "_format": "hh-sol-artifact-1",
  "contractName": "Item",
  "sourceName": "contracts/Item.sol",
  "abi": [
    {
      "inputs": [
        {
          "components": [
            {
              "internalType": "uint256",
              "name": "shid",
              "type": "uint256"
            },
            {
              "internalType": "uint256",
              "name": "organizationID",
              "type": "uint256"
            },
            {
              "internalType": "uint256",
              "name": "producedDate",
              "type": "uint256"
            },
            {
              "internalType": "uint256",
              "name": "expirationDate",
              "type": "uint256"
            },
            {
              "internalType": "address",
              "name": "organization",
              "type": "address"
            },
            {
              "internalType": "string",
              "name": "name",
              "type": "string"
            },
            {
              "internalType": "string",
              "name": "organizationName",
              "type": "string"
            }
          ],
          "internalType": "struct Item.ItemData",
          "name": "_itemData",
          "type": "tuple"
        },
        {
          "internalType": "uint256",
          "name": "_maxNumber",
          "type": "uint256"
        },
        {
          "internalType": "uint256",
          "name": "_maxPackNumber",
          "type": "uint256"
        },
        {
          "internalType": "string",
          "name": "_unit",
          "type": "string"
        }
      ],
      "stateMutability": "nonpayable",
      "type": "constructor"
    },
    {
      "anonymous": false,
      "inputs": [
        {
          "indexed": true,
          "internalType": "uint256",
          "name": "shid",
          "type": "uint256"
        },
        {
          "indexed": false,
          "internalType": "uint256",
          "name": "organizationID",
          "type": "uint256"
        },
        {
          "indexed": false,
          "internalType": "uint256",
          "name": "restNumber",
          "type": "uint256"
        },
        {
          "indexed": false,
          "internalType": "uint256",
          "name": "maxNumber",
          "type": "uint256"
        },
        {
          "indexed": false,
          "internalType": "uint256",
          "name": "maxPackNumber",
          "type": "uint256"
        },
        {
          "indexed": false,
          "internalType": "uint256",
          "name": "producedDate",
          "type": "uint256"
        },
        {
          "indexed": false,
          "internalType": "uint256",
          "name": "expirationDate",
          "type": "uint256"
        },
        {
          "indexed": false,
          "internalType": "address",
          "name": "organization",
          "type": "address"
        }
      ],
      "name": "ItemCreated",
      "type": "event"
    },
    {
      "anonymous": false,
      "inputs": [
        {
          "indexed": true,
          "internalType": "uint256",
          "name": "shid",
          "type": "uint256"
        },
        {
          "indexed": false,
          "internalType": "uint256",
          "name": "organizationID",
          "type": "uint256"
        },
        {
          "indexed": false,
          "internalType": "uint256",
          "name": "restNumber",
          "type": "uint256"
        },
        {
          "indexed": false,
          "internalType": "uint256",
          "name": "maxNumber",
          "type": "uint256"
        },
        {
          "indexed": false,
          "internalType": "uint256",
          "name": "maxPackNumber",
          "type": "uint256"
        },
        {
          "indexed": false,
          "internalType": "uint256",
          "name": "producedDate",
          "type": "uint256"
        },
        {
          "indexed": false,
          "internalType": "uint256",
          "name": "expirationDate",
          "type": "uint256"
        },
        {
          "indexed": false,
          "internalType": "address",
          "name": "organization",
          "type": "address"
        }
      ],
      "name": "ItemModified",
      "type": "event"
    },
    {
      "inputs": [
        {
          "components": [
            {
              "internalType": "uint256",
              "name": "shid",
              "type": "uint256"
            },
            {
              "internalType": "uint256",
              "name": "phid",
              "type": "uint256"
            },
            {
              "internalType": "address",
              "name": "usedItem",
              "type": "address"
            },
            {
              "internalType": "uint256",
              "name": "usedNumber",
              "type": "uint256"
            }
          ],
          "internalType": "struct Item.UsedItemData[]",
          "name": "_dests",
          "type": "tuple[]"
        }
      ],
      "name": "addDests",
      "outputs": [],
      "stateMutability": "nonpayable",
      "type": "function"
    },
    {
      "inputs": [
        {
          "internalType": "uint256",
          "name": "_startTime",
          "type": "uint256"
        },
        {
          "internalType": "uint256",
          "name": "_endTime",
          "type": "uint256"
        },
        {
          "internalType": "string",
          "name": "_name",
          "type": "string"
        },
        {
          "internalType": "string[]",
          "name": "_mediaList",
          "type": "string[]"
        },
        {
          "internalType": "string[]",
          "name": "_sensorList",
          "type": "string[]"
        }
      ],
      "name": "addProcedure",
      "outputs": [],
      "stateMutability": "nonpayable",
      "type": "function"
    },
    {
      "inputs": [
        {
          "components": [
            {
              "internalType": "uint256",
              "name": "shid",
              "type": "uint256"
            },
            {
              "internalType": "uint256",
              "name": "phid",
              "type": "uint256"
            },
            {
              "internalType": "address",
              "name": "usedItem",
              "type": "address"
            },
            {
              "internalType": "uint256",
              "name": "usedNumber",
              "type": "uint256"
            }
          ],
          "internalType": "struct Item.UsedItemData[]",
          "name": "_sources",
          "type": "tuple[]"
        }
      ],
      "name": "addSources",
      "outputs": [],
      "stateMutability": "nonpayable",
      "type": "function"
    },
    {
      "inputs": [
        {
          "internalType": "uint256",
          "name": "_number",
          "type": "uint256"
        }
      ],
      "name": "decrease",
      "outputs": [],
      "stateMutability": "nonpayable",
      "type": "function"
    },
    {
      "inputs": [
        {
          "internalType": "address",
          "name": "",
          "type": "address"
        }
      ],
      "name": "destination",
      "outputs": [
        {
          "internalType": "bool",
          "name": "",
          "type": "bool"
        }
      ],
      "stateMutability": "view",
      "type": "function"
    },
    {
      "inputs": [
        {
          "internalType": "uint256",
          "name": "",
          "type": "uint256"
        }
      ],
      "name": "destinationList",
      "outputs": [
        {
          "internalType": "uint256",
          "name": "shid",
          "type": "uint256"
        },
        {
          "internalType": "uint256",
          "name": "phid",
          "type": "uint256"
        },
        {
          "internalType": "address",
          "name": "usedItem",
          "type": "address"
        },
        {
          "internalType": "uint256",
          "name": "usedNumber",
          "type": "uint256"
        }
      ],
      "stateMutability": "view",
      "type": "function"
    },
    {
      "inputs": [],
      "name": "itemData",
      "outputs": [
        {
          "internalType": "uint256",
          "name": "shid",
          "type": "uint256"
        },
        {
          "internalType": "uint256",
          "name": "organizationID",
          "type": "uint256"
        },
        {
          "internalType": "uint256",
          "name": "producedDate",
          "type": "uint256"
        },
        {
          "internalType": "uint256",
          "name": "expirationDate",
          "type": "uint256"
        },
        {
          "internalType": "address",
          "name": "organization",
          "type": "address"
        },
        {
          "internalType": "string",
          "name": "name",
          "type": "string"
        },
        {
          "internalType": "string",
          "name": "organizationName",
          "type": "string"
        }
      ],
      "stateMutability": "view",
      "type": "function"
    },
    {
      "inputs": [
        {
          "components": [
            {
              "internalType": "uint256",
              "name": "shid",
              "type": "uint256"
            },
            {
              "internalType": "uint256",
              "name": "organizationID",
              "type": "uint256"
            },
            {
              "internalType": "uint256",
              "name": "producedDate",
              "type": "uint256"
            },
            {
              "internalType": "uint256",
              "name": "expirationDate",
              "type": "uint256"
            },
            {
              "internalType": "address",
              "name": "organization",
              "type": "address"
            },
            {
              "internalType": "string",
              "name": "name",
              "type": "string"
            },
            {
              "internalType": "string",
              "name": "organizationName",
              "type": "string"
            }
          ],
          "internalType": "struct Item.ItemData",
          "name": "_itemData",
          "type": "tuple"
        },
        {
          "internalType": "uint256",
          "name": "_maxNumber",
          "type": "uint256"
        },
        {
          "internalType": "uint256",
          "name": "_maxPackNumber",
          "type": "uint256"
        },
        {
          "internalType": "string",
          "name": "_unit",
          "type": "string"
        }
      ],
      "name": "modify",
      "outputs": [],
      "stateMutability": "nonpayable",
      "type": "function"
    },
    {
      "inputs": [
        {
          "internalType": "uint256",
          "name": "",
          "type": "uint256"
        }
      ],
      "name": "procedureList",
      "outputs": [
        {
          "internalType": "address",
          "name": "",
          "type": "address"
        }
      ],
      "stateMutability": "view",
      "type": "function"
    },
    {
      "inputs": [],
      "name": "quantity",
      "outputs": [
        {
          "internalType": "uint256",
          "name": "restNumber",
          "type": "uint256"
        },
        {
          "internalType": "uint256",
          "name": "maxNumber",
          "type": "uint256"
        },
        {
          "internalType": "uint256",
          "name": "maxPackNumber",
          "type": "uint256"
        },
        {
          "internalType": "string",
          "name": "unit",
          "type": "string"
        }
      ],
      "stateMutability": "view",
      "type": "function"
    },
    {
      "inputs": [
        {
          "internalType": "uint256",
          "name": "",
          "type": "uint256"
        }
      ],
      "name": "sourceList",
      "outputs": [
        {
          "internalType": "uint256",
          "name": "shid",
          "type": "uint256"
        },
        {
          "internalType": "uint256",
          "name": "phid",
          "type": "uint256"
        },
        {
          "internalType": "address",
          "name": "usedItem",
          "type": "address"
        },
        {
          "internalType": "uint256",
          "name": "usedNumber",
          "type": "uint256"
        }
      ],
      "stateMutability": "view",
      "type": "function"
    }
  ],
  "bytecode": "0x60806040523480156200001157600080fd5b50604051620025c1380380620025c1833981810160405281019062000037919062000583565b8360046000820151816000015560208201518160010155604082015181600201556060820151816003015560808201518160040160006101000a81548173ffffffffffffffffffffffffffffffffffffffff021916908373ffffffffffffffffffffffffffffffffffffffff16021790555060a0820151816005019080519060200190620000c792919062000187565b5060c0820151816006019080519060200190620000e692919062000187565b509050508260008001819055508260006001018190555080600060030190805190602001906200011892919062000187565b508160006002018190555083600001517f0418838c4bf5b7d66c0f413cfc31b61786b00cabb5a06a0f03f6b8aeb26deafd856020015185868689604001518a606001518b6080015160405162000175979695949392919062000655565b60405180910390a25050505062000737565b828054620001959062000701565b90600052602060002090601f016020900481019282620001b9576000855562000205565b82601f10620001d457805160ff191683800117855562000205565b8280016001018555821562000205579182015b8281111562000204578251825591602001919060010190620001e7565b5b50905062000214919062000218565b5090565b5b808211156200023357600081600090555060010162000219565b5090565b6000604051905090565b600080fd5b600080fd5b600080fd5b6000601f19601f8301169050919050565b7f4e487b7100000000000000000000000000000000000000000000000000000000600052604160045260246000fd5b6200029b8262000250565b810181811067ffffffffffffffff82111715620002bd57620002bc62000261565b5b80604052505050565b6000620002d262000237565b9050620002e0828262000290565b919050565b600080fd5b6000819050919050565b620002ff81620002ea565b81146200030b57600080fd5b50565b6000815190506200031f81620002f4565b92915050565b600073ffffffffffffffffffffffffffffffffffffffff82169050919050565b6000620003528262000325565b9050919050565b620003648162000345565b81146200037057600080fd5b50565b600081519050620003848162000359565b92915050565b600080fd5b600080fd5b600067ffffffffffffffff821115620003b257620003b162000261565b5b620003bd8262000250565b9050602081019050919050565b60005b83811015620003ea578082015181840152602081019050620003cd565b83811115620003fa576000848401525b50505050565b600062000417620004118462000394565b620002c6565b9050828152602081018484840111156200043657620004356200038f565b5b62000443848285620003ca565b509392505050565b600082601f8301126200046357620004626200038a565b5b81516200047584826020860162000400565b91505092915050565b600060e082840312156200049757620004966200024b565b5b620004a360e0620002c6565b90506000620004b5848285016200030e565b6000830152506020620004cb848285016200030e565b6020830152506040620004e1848285016200030e565b6040830152506060620004f7848285016200030e565b60608301525060806200050d8482850162000373565b60808301525060a082015167ffffffffffffffff811115620005345762000533620002e5565b5b62000542848285016200044b565b60a08301525060c082015167ffffffffffffffff811115620005695762000568620002e5565b5b62000577848285016200044b565b60c08301525092915050565b60008060008060808587031215620005a0576200059f62000241565b5b600085015167ffffffffffffffff811115620005c157620005c062000246565b5b620005cf878288016200047e565b9450506020620005e2878288016200030e565b9350506040620005f5878288016200030e565b925050606085015167ffffffffffffffff81111562000619576200061862000246565b5b62000627878288016200044b565b91505092959194509250565b6200063e81620002ea565b82525050565b6200064f8162000345565b82525050565b600060e0820190506200066c600083018a62000633565b6200067b602083018962000633565b6200068a604083018862000633565b62000699606083018762000633565b620006a8608083018662000633565b620006b760a083018562000633565b620006c660c083018462000644565b98975050505050505050565b7f4e487b7100000000000000000000000000000000000000000000000000000000600052602260045260246000fd5b600060028204905060018216806200071a57607f821691505b60208210811415620007315762000730620006d2565b5b50919050565b611e7a80620007476000396000f3fe608060405234801561001057600080fd5b50600436106100a95760003560e01c80634ff7c731116100715780634ff7c731146101725780636aefbacf1461018e578063a5889fb4146101be578063aec0be13146101da578063d94345901461020d578063f3f58acb14610229576100a9565b80630465b1b1146100ae57806309788a88146100e157806317fc45e2146101055780632d6d3062146101265780632f3bd5cd14610142575b600080fd5b6100c860048036038101906100c391906111a7565b610245565b6040516100d89493929190611224565b60405180910390f35b6100e96102a5565b6040516100fc9796959493929190611302565b60405180910390f35b61010d610405565b60405161011d949392919061137f565b60405180910390f35b610140600480360381019061013b91906111a7565b6104ab565b005b61015c600480360381019061015791906113f7565b6105e6565b604051610169919061143f565b60405180910390f35b61018c60048036038101906101879190611675565b610606565b005b6101a860048036038101906101a391906111a7565b61084b565b6040516101b59190611744565b60405180910390f35b6101d860048036038101906101d39190611855565b61088a565b005b6101f460048036038101906101ef91906111a7565b610a60565b6040516102049493929190611224565b60405180910390f35b61022760048036038101906102229190611a2f565b610ac0565b005b610243600480360381019061023e9190611a2f565b610d11565b005b600e818154811061025557600080fd5b90600052602060002090600402016000915090508060000154908060010154908060020160009054906101000a900473ffffffffffffffffffffffffffffffffffffffff16908060030154905084565b60048060000154908060010154908060020154908060030154908060040160009054906101000a900473ffffffffffffffffffffffffffffffffffffffff16908060050180546102f490611aa7565b80601f016020809104026020016040519081016040528092919081815260200182805461032090611aa7565b801561036d5780601f106103425761010080835404028352916020019161036d565b820191906000526020600020905b81548152906001019060200180831161035057829003601f168201915b50505050509080600601805461038290611aa7565b80601f01602080910402602001604051908101604052809291908181526020018280546103ae90611aa7565b80156103fb5780601f106103d0576101008083540402835291602001916103fb565b820191906000526020600020905b8154815290600101906020018083116103de57829003601f168201915b5050505050905087565b600080600001549080600101549080600201549080600301805461042890611aa7565b80601f016020809104026020016040519081016040528092919081815260200182805461045490611aa7565b80156104a15780601f10610476576101008083540402835291602001916104a1565b820191906000526020600020905b81548152906001019060200180831161048457829003601f168201915b5050505050905084565b336104eb6040518060400160405280600981526020017f4954454d203d202573000000000000000000000000000000000000000000000081525082610f31565b60011515600f60008373ffffffffffffffffffffffffffffffffffffffff1673ffffffffffffffffffffffffffffffffffffffff16815260200190815260200160002060009054906101000a900460ff1615151461057e576040517f08c379a000000000000000000000000000000000000000000000000000000000815260040161057590611b25565b60405180910390fd5b8160008001548111156105c6576040517f08c379a00000000000000000000000000000000000000000000000000000000081526004016105bd90611b91565b60405180910390fd5b826000800160008282546105da9190611be0565b92505081905550505050565b600f6020528060005260406000206000915054906101000a900460ff1681565b60046003015442111561064e576040517f08c379a000000000000000000000000000000000000000000000000000000000815260040161064590611c60565b60405180910390fd5b600b339080600181540180825580915050600190039060005260206000200160009091909190916101000a81548173ffffffffffffffffffffffffffffffffffffffff021916908373ffffffffffffffffffffffffffffffffffffffff16021790555084600c60003373ffffffffffffffffffffffffffffffffffffffff1673ffffffffffffffffffffffffffffffffffffffff1681526020019081526020016000206003018190555083600c60003373ffffffffffffffffffffffffffffffffffffffff1673ffffffffffffffffffffffffffffffffffffffff1681526020019081526020016000206004018190555082600c60003373ffffffffffffffffffffffffffffffffffffffff1673ffffffffffffffffffffffffffffffffffffffff1681526020019081526020016000206000019080519060200190610795929190610ff6565b5081600c60003373ffffffffffffffffffffffffffffffffffffffff1673ffffffffffffffffffffffffffffffffffffffff16815260200190815260200160002060010190805190602001906107ec92919061107c565b5080600c60003373ffffffffffffffffffffffffffffffffffffffff1673ffffffffffffffffffffffffffffffffffffffff168152602001908152602001600020600201908051906020019061084392919061107c565b505050505050565b600b818154811061085b57600080fd5b906000526020600020016000915054906101000a900473ffffffffffffffffffffffffffffffffffffffff1681565b6004800160009054906101000a900473ffffffffffffffffffffffffffffffffffffffff1673ffffffffffffffffffffffffffffffffffffffff163373ffffffffffffffffffffffffffffffffffffffff161461091c576040517f08c379a000000000000000000000000000000000000000000000000000000000815260040161091390611cf2565b60405180910390fd5b8360046000820151816000015560208201518160010155604082015181600201556060820151816003015560808201518160040160006101000a81548173ffffffffffffffffffffffffffffffffffffffff021916908373ffffffffffffffffffffffffffffffffffffffff16021790555060a08201518160050190805190602001906109aa929190610ff6565b5060c08201518160060190805190602001906109c7929190610ff6565b509050508260008001819055508260006001018190555080600060030190805190602001906109f7929190610ff6565b508160006002018190555083600001517f4f8f0545a6fdb4da20c8f6ba443052136572eec9f525037bf0956c35605194fb856020015185868689604001518a606001518b60800151604051610a529796959493929190611d12565b60405180910390a250505050565b600d8181548110610a7057600080fd5b90600052602060002090600402016000915090508060000154908060010154908060020160009054906101000a900473ffffffffffffffffffffffffffffffffffffffff16908060030154905084565b6004800160009054906101000a900473ffffffffffffffffffffffffffffffffffffffff1673ffffffffffffffffffffffffffffffffffffffff163373ffffffffffffffffffffffffffffffffffffffff1614610b52576040517f08c379a0000000000000000000000000000000000000000000000000000000008152600401610b4990611cf2565b60405180910390fd5b600460030154421115610b9a576040517f08c379a0000000000000000000000000000000000000000000000000000000008152600401610b9190611c60565b60405180910390fd5b60005b8151811015610d0d57600d828281518110610bbb57610bba611d81565b5b60200260200101519080600181540180825580915050600190039060005260206000209060040201600090919091909150600082015181600001556020820151816001015560408201518160020160006101000a81548173ffffffffffffffffffffffffffffffffffffffff021916908373ffffffffffffffffffffffffffffffffffffffff160217905550606082015181600301555050818181518110610c6657610c65611d81565b5b60200260200101516040015173ffffffffffffffffffffffffffffffffffffffff16632d6d3062838381518110610ca057610c9f611d81565b5b6020026020010151606001516040518263ffffffff1660e01b8152600401610cc89190611db0565b600060405180830381600087803b158015610ce257600080fd5b505af1158015610cf6573d6000803e3d6000fd5b505050508080610d0590611dcb565b915050610b9d565b5050565b6004800160009054906101000a900473ffffffffffffffffffffffffffffffffffffffff1673ffffffffffffffffffffffffffffffffffffffff163373ffffffffffffffffffffffffffffffffffffffff1614610da3576040517f08c379a0000000000000000000000000000000000000000000000000000000008152600401610d9a90611cf2565b60405180910390fd5b600460030154421115610deb576040517f08c379a0000000000000000000000000000000000000000000000000000000008152600401610de290611c60565b60405180910390fd5b60005b8151811015610f2d57600e828281518110610e0c57610e0b611d81565b5b60200260200101519080600181540180825580915050600190039060005260206000209060040201600090919091909150600082015181600001556020820151816001015560408201518160020160006101000a81548173ffffffffffffffffffffffffffffffffffffffff021916908373ffffffffffffffffffffffffffffffffffffffff1602179055506060820151816003015550506001600f6000848481518110610ebd57610ebc611d81565b5b60200260200101516040015173ffffffffffffffffffffffffffffffffffffffff1673ffffffffffffffffffffffffffffffffffffffff16815260200190815260200160002060006101000a81548160ff0219169083151502179055508080610f2590611dcb565b915050610dee565b5050565b610fc98282604051602401610f47929190611e14565b6040516020818303038152906040527f319af333000000000000000000000000000000000000000000000000000000007bffffffffffffffffffffffffffffffffffffffffffffffffffffffff19166020820180517bffffffffffffffffffffffffffffffffffffffffffffffffffffffff8381831617835250505050610fcd565b5050565b60008151905060006a636f6e736f6c652e6c6f679050602083016000808483855afa5050505050565b82805461100290611aa7565b90600052602060002090601f016020900481019282611024576000855561106b565b82601f1061103d57805160ff191683800117855561106b565b8280016001018555821561106b579182015b8281111561106a57825182559160200191906001019061104f565b5b50905061107891906110dc565b5090565b8280548282559060005260206000209081019282156110cb579160200282015b828111156110ca5782518290805190602001906110ba929190610ff6565b509160200191906001019061109c565b5b5090506110d891906110f9565b5090565b5b808211156110f55760008160009055506001016110dd565b5090565b5b808211156111195760008181611110919061111d565b506001016110fa565b5090565b50805461112990611aa7565b6000825580601f1061113b575061115a565b601f01602090049060005260206000209081019061115991906110dc565b5b50565b6000604051905090565b600080fd5b600080fd5b6000819050919050565b61118481611171565b811461118f57600080fd5b50565b6000813590506111a18161117b565b92915050565b6000602082840312156111bd576111bc611167565b5b60006111cb84828501611192565b91505092915050565b6111dd81611171565b82525050565b600073ffffffffffffffffffffffffffffffffffffffff82169050919050565b600061120e826111e3565b9050919050565b61121e81611203565b82525050565b600060808201905061123960008301876111d4565b61124660208301866111d4565b6112536040830185611215565b61126060608301846111d4565b95945050505050565b600081519050919050565b600082825260208201905092915050565b60005b838110156112a3578082015181840152602081019050611288565b838111156112b2576000848401525b50505050565b6000601f19601f8301169050919050565b60006112d482611269565b6112de8185611274565b93506112ee818560208601611285565b6112f7816112b8565b840191505092915050565b600060e082019050611317600083018a6111d4565b61132460208301896111d4565b61133160408301886111d4565b61133e60608301876111d4565b61134b6080830186611215565b81810360a083015261135d81856112c9565b905081810360c083015261137181846112c9565b905098975050505050505050565b600060808201905061139460008301876111d4565b6113a160208301866111d4565b6113ae60408301856111d4565b81810360608301526113c081846112c9565b905095945050505050565b6113d481611203565b81146113df57600080fd5b50565b6000813590506113f1816113cb565b92915050565b60006020828403121561140d5761140c611167565b5b600061141b848285016113e2565b91505092915050565b60008115159050919050565b61143981611424565b82525050565b60006020820190506114546000830184611430565b92915050565b600080fd5b600080fd5b7f4e487b7100000000000000000000000000000000000000000000000000000000600052604160045260246000fd5b61149c826112b8565b810181811067ffffffffffffffff821117156114bb576114ba611464565b5b80604052505050565b60006114ce61115d565b90506114da8282611493565b919050565b600067ffffffffffffffff8211156114fa576114f9611464565b5b611503826112b8565b9050602081019050919050565b82818337600083830152505050565b600061153261152d846114df565b6114c4565b90508281526020810184848401111561154e5761154d61145f565b5b611559848285611510565b509392505050565b600082601f8301126115765761157561145a565b5b813561158684826020860161151f565b91505092915050565b600067ffffffffffffffff8211156115aa576115a9611464565b5b602082029050602081019050919050565b600080fd5b60006115d36115ce8461158f565b6114c4565b905080838252602082019050602084028301858111156115f6576115f56115bb565b5b835b8181101561163d57803567ffffffffffffffff81111561161b5761161a61145a565b5b8086016116288982611561565b855260208501945050506020810190506115f8565b5050509392505050565b600082601f83011261165c5761165b61145a565b5b813561166c8482602086016115c0565b91505092915050565b600080600080600060a0868803121561169157611690611167565b5b600061169f88828901611192565b95505060206116b088828901611192565b945050604086013567ffffffffffffffff8111156116d1576116d061116c565b5b6116dd88828901611561565b935050606086013567ffffffffffffffff8111156116fe576116fd61116c565b5b61170a88828901611647565b925050608086013567ffffffffffffffff81111561172b5761172a61116c565b5b61173788828901611647565b9150509295509295909350565b60006020820190506117596000830184611215565b92915050565b600080fd5b600080fd5b600060e0828403121561177f5761177e61175f565b5b61178960e06114c4565b9050600061179984828501611192565b60008301525060206117ad84828501611192565b60208301525060406117c184828501611192565b60408301525060606117d584828501611192565b60608301525060806117e9848285016113e2565b60808301525060a082013567ffffffffffffffff81111561180d5761180c611764565b5b61181984828501611561565b60a08301525060c082013567ffffffffffffffff81111561183d5761183c611764565b5b61184984828501611561565b60c08301525092915050565b6000806000806080858703121561186f5761186e611167565b5b600085013567ffffffffffffffff81111561188d5761188c61116c565b5b61189987828801611769565b94505060206118aa87828801611192565b93505060406118bb87828801611192565b925050606085013567ffffffffffffffff8111156118dc576118db61116c565b5b6118e887828801611561565b91505092959194509250565b600067ffffffffffffffff82111561190f5761190e611464565b5b602082029050602081019050919050565b6000608082840312156119365761193561175f565b5b61194060806114c4565b9050600061195084828501611192565b600083015250602061196484828501611192565b6020830152506040611978848285016113e2565b604083015250606061198c84828501611192565b60608301525092915050565b60006119ab6119a6846118f4565b6114c4565b905080838252602082019050608084028301858111156119ce576119cd6115bb565b5b835b818110156119f757806119e38882611920565b8452602084019350506080810190506119d0565b5050509392505050565b600082601f830112611a1657611a1561145a565b5b8135611a26848260208601611998565b91505092915050565b600060208284031215611a4557611a44611167565b5b600082013567ffffffffffffffff811115611a6357611a6261116c565b5b611a6f84828501611a01565b91505092915050565b7f4e487b7100000000000000000000000000000000000000000000000000000000600052602260045260246000fd5b60006002820490506001821680611abf57607f821691505b60208210811415611ad357611ad2611a78565b5b50919050565b7f4974656d3a204974656d206973206e6f7420696e2064657374696e6174696f6e600082015250565b6000611b0f602083611274565b9150611b1a82611ad9565b602082019050919050565b60006020820190508181036000830152611b3e81611b02565b9050919050565b7f4974656d3a207175616e74697479206973206e6f7420656e6f75676800000000600082015250565b6000611b7b601c83611274565b9150611b8682611b45565b602082019050919050565b60006020820190508181036000830152611baa81611b6e565b9050919050565b7f4e487b7100000000000000000000000000000000000000000000000000000000600052601160045260246000fd5b6000611beb82611171565b9150611bf683611171565b925082821015611c0957611c08611bb1565b5b828203905092915050565b7f4974656d3a2054686973206974656d20686173206265656e2065787069726564600082015250565b6000611c4a602083611274565b9150611c5582611c14565b602082019050919050565b60006020820190508181036000830152611c7981611c3d565b9050919050565b7f4974656d3a2043616c6c6572206973206e6f7420612076616c6964206f72676160008201527f6e697a6174696f6e000000000000000000000000000000000000000000000000602082015250565b6000611cdc602883611274565b9150611ce782611c80565b604082019050919050565b60006020820190508181036000830152611d0b81611ccf565b9050919050565b600060e082019050611d27600083018a6111d4565b611d3460208301896111d4565b611d4160408301886111d4565b611d4e60608301876111d4565b611d5b60808301866111d4565b611d6860a08301856111d4565b611d7560c0830184611215565b98975050505050505050565b7f4e487b7100000000000000000000000000000000000000000000000000000000600052603260045260246000fd5b6000602082019050611dc560008301846111d4565b92915050565b6000611dd682611171565b91507fffffffffffffffffffffffffffffffffffffffffffffffffffffffffffffffff821415611e0957611e08611bb1565b5b600182019050919050565b60006040820190508181036000830152611e2e81856112c9565b9050611e3d6020830184611215565b939250505056fea264697066735822122062e679146089bb44f3fac60e45532256144f078e5888bacb9ff2385fefc3804464736f6c63430008090033",
  "linkReferences": {},
  "deployedLinkReferences": {}
}