{
  "_format": "hh-sol-artifact-1",
  "contractName": "Item",
  "sourceName": "contracts/Item.sol",
  "abi": [
    {
      "inputs": [
        {
          "components": [
            {
              "internalType": "uint256",
              "name": "shid",
              "type": "uint256"
            },
            {
              "internalType": "uint256",
              "name": "organizationID",
              "type": "uint256"
            },
            {
              "internalType": "uint256",
              "name": "producedDate",
              "type": "uint256"
            },
            {
              "internalType": "uint256",
              "name": "expirationDate",
              "type": "uint256"
            },
            {
              "internalType": "address payable",
              "name": "organization",
              "type": "address"
            },
            {
              "internalType": "string",
              "name": "name",
              "type": "string"
            },
            {
              "internalType": "string",
              "name": "organizationName",
              "type": "string"
            }
          ],
          "internalType": "struct Item.ItemData",
          "name": "_itemData",
          "type": "tuple"
        },
        {
          "components": [
            {
              "internalType": "uint256",
              "name": "producedNumber",
              "type": "uint256"
            },
            {
              "internalType": "uint256",
              "name": "restNumber",
              "type": "uint256"
            },
            {
              "internalType": "uint256",
              "name": "packNumber",
              "type": "uint256"
            },
            {
              "internalType": "string",
              "name": "unit",
              "type": "string"
            }
          ],
          "internalType": "struct TraceableObject.Quantity",
          "name": "_quantity",
          "type": "tuple"
        }
      ],
      "stateMutability": "nonpayable",
      "type": "constructor"
    },
    {
      "anonymous": false,
      "inputs": [
        {
          "indexed": true,
          "internalType": "uint256",
          "name": "shid",
          "type": "uint256"
        },
        {
          "indexed": false,
          "internalType": "uint256",
          "name": "producedNumber",
          "type": "uint256"
        },
        {
          "indexed": false,
          "internalType": "uint256",
          "name": "restNumber",
          "type": "uint256"
        },
        {
          "indexed": false,
          "internalType": "uint256",
          "name": "packNumber",
          "type": "uint256"
        },
        {
          "indexed": false,
          "internalType": "uint256",
          "name": "producedDate",
          "type": "uint256"
        },
        {
          "indexed": false,
          "internalType": "uint256",
          "name": "expirationDate",
          "type": "uint256"
        },
        {
          "indexed": false,
          "internalType": "address",
          "name": "organization",
          "type": "address"
        }
      ],
      "name": "ItemCreated",
      "type": "event"
    },
    {
      "inputs": [
        {
          "components": [
            {
              "internalType": "uint256",
              "name": "id",
              "type": "uint256"
            },
            {
              "internalType": "address",
              "name": "usedObject",
              "type": "address"
            },
            {
              "internalType": "uint256",
              "name": "usedNumber",
              "type": "uint256"
            },
            {
              "internalType": "bool",
              "name": "isDeleted",
              "type": "bool"
            }
          ],
          "internalType": "struct TraceableObject.TraceData[]",
          "name": "_dests",
          "type": "tuple[]"
        }
      ],
      "name": "addDests",
      "outputs": [],
      "stateMutability": "nonpayable",
      "type": "function"
    },
    {
      "inputs": [
        {
          "components": [
            {
              "internalType": "address",
              "name": "procedure",
              "type": "address"
            },
            {
              "internalType": "string",
              "name": "name",
              "type": "string"
            },
            {
              "internalType": "string[]",
              "name": "mediaList",
              "type": "string[]"
            },
            {
              "internalType": "string[]",
              "name": "sensorList",
              "type": "string[]"
            },
            {
              "internalType": "uint256",
              "name": "startTime",
              "type": "uint256"
            },
            {
              "internalType": "uint256",
              "name": "endTime",
              "type": "uint256"
            }
          ],
          "internalType": "struct Item.ProcedureData",
          "name": "_procedureData",
          "type": "tuple"
        }
      ],
      "name": "addProcedure",
      "outputs": [],
      "stateMutability": "nonpayable",
      "type": "function"
    },
    {
      "inputs": [
        {
          "components": [
            {
              "internalType": "uint256",
              "name": "id",
              "type": "uint256"
            },
            {
              "internalType": "address",
              "name": "usedObject",
              "type": "address"
            },
            {
              "internalType": "uint256",
              "name": "usedNumber",
              "type": "uint256"
            },
            {
              "internalType": "bool",
              "name": "isDeleted",
              "type": "bool"
            }
          ],
          "internalType": "struct TraceableObject.TraceData[]",
          "name": "_sources",
          "type": "tuple[]"
        }
      ],
      "name": "addSources",
      "outputs": [],
      "stateMutability": "nonpayable",
      "type": "function"
    },
    {
      "inputs": [
        {
          "internalType": "uint256",
          "name": "_number",
          "type": "uint256"
        }
      ],
      "name": "decrease",
      "outputs": [],
      "stateMutability": "nonpayable",
      "type": "function"
    },
    {
      "inputs": [
        {
          "internalType": "address",
          "name": "_object",
          "type": "address"
        }
      ],
      "name": "delDest",
      "outputs": [],
      "stateMutability": "nonpayable",
      "type": "function"
    },
    {
      "inputs": [
        {
          "internalType": "address",
          "name": "_object",
          "type": "address"
        }
      ],
      "name": "delSource",
      "outputs": [],
      "stateMutability": "nonpayable",
      "type": "function"
    },
    {
      "inputs": [
        {
          "internalType": "uint256",
          "name": "",
          "type": "uint256"
        }
      ],
      "name": "destinationList",
      "outputs": [
        {
          "internalType": "uint256",
          "name": "id",
          "type": "uint256"
        },
        {
          "internalType": "address",
          "name": "usedObject",
          "type": "address"
        },
        {
          "internalType": "uint256",
          "name": "usedNumber",
          "type": "uint256"
        },
        {
          "internalType": "bool",
          "name": "isDeleted",
          "type": "bool"
        }
      ],
      "stateMutability": "view",
      "type": "function"
    },
    {
      "inputs": [
        {
          "internalType": "address payable",
          "name": "to",
          "type": "address"
        }
      ],
      "name": "destruct",
      "outputs": [],
      "stateMutability": "nonpayable",
      "type": "function"
    },
    {
      "inputs": [],
      "name": "getDestinationList",
      "outputs": [
        {
          "components": [
            {
              "internalType": "uint256",
              "name": "id",
              "type": "uint256"
            },
            {
              "internalType": "address",
              "name": "usedObject",
              "type": "address"
            },
            {
              "internalType": "uint256",
              "name": "usedNumber",
              "type": "uint256"
            },
            {
              "internalType": "bool",
              "name": "isDeleted",
              "type": "bool"
            }
          ],
          "internalType": "struct TraceableObject.TraceData[]",
          "name": "",
          "type": "tuple[]"
        }
      ],
      "stateMutability": "view",
      "type": "function"
    },
    {
      "inputs": [],
      "name": "getSourceList",
      "outputs": [
        {
          "components": [
            {
              "internalType": "uint256",
              "name": "id",
              "type": "uint256"
            },
            {
              "internalType": "address",
              "name": "usedObject",
              "type": "address"
            },
            {
              "internalType": "uint256",
              "name": "usedNumber",
              "type": "uint256"
            },
            {
              "internalType": "bool",
              "name": "isDeleted",
              "type": "bool"
            }
          ],
          "internalType": "struct TraceableObject.TraceData[]",
          "name": "",
          "type": "tuple[]"
        }
      ],
      "stateMutability": "view",
      "type": "function"
    },
    {
      "inputs": [
        {
          "internalType": "address",
          "name": "",
          "type": "address"
        }
      ],
      "name": "isDestination",
      "outputs": [
        {
          "internalType": "bool",
          "name": "",
          "type": "bool"
        }
      ],
      "stateMutability": "view",
      "type": "function"
    },
    {
      "inputs": [],
      "name": "itemData",
      "outputs": [
        {
          "internalType": "uint256",
          "name": "shid",
          "type": "uint256"
        },
        {
          "internalType": "uint256",
          "name": "organizationID",
          "type": "uint256"
        },
        {
          "internalType": "uint256",
          "name": "producedDate",
          "type": "uint256"
        },
        {
          "internalType": "uint256",
          "name": "expirationDate",
          "type": "uint256"
        },
        {
          "internalType": "address payable",
          "name": "organization",
          "type": "address"
        },
        {
          "internalType": "string",
          "name": "name",
          "type": "string"
        },
        {
          "internalType": "string",
          "name": "organizationName",
          "type": "string"
        }
      ],
      "stateMutability": "view",
      "type": "function"
    },
    {
      "inputs": [
        {
          "internalType": "uint256",
          "name": "",
          "type": "uint256"
        }
      ],
      "name": "procedureList",
      "outputs": [
        {
          "internalType": "address",
          "name": "procedure",
          "type": "address"
        },
        {
          "internalType": "string",
          "name": "name",
          "type": "string"
        },
        {
          "internalType": "uint256",
          "name": "startTime",
          "type": "uint256"
        },
        {
          "internalType": "uint256",
          "name": "endTime",
          "type": "uint256"
        }
      ],
      "stateMutability": "view",
      "type": "function"
    },
    {
      "inputs": [],
      "name": "quantity",
      "outputs": [
        {
          "internalType": "uint256",
          "name": "producedNumber",
          "type": "uint256"
        },
        {
          "internalType": "uint256",
          "name": "restNumber",
          "type": "uint256"
        },
        {
          "internalType": "uint256",
          "name": "packNumber",
          "type": "uint256"
        },
        {
          "internalType": "string",
          "name": "unit",
          "type": "string"
        }
      ],
      "stateMutability": "view",
      "type": "function"
    },
    {
      "inputs": [
        {
          "internalType": "uint256",
          "name": "",
          "type": "uint256"
        }
      ],
      "name": "sourceList",
      "outputs": [
        {
          "internalType": "uint256",
          "name": "id",
          "type": "uint256"
        },
        {
          "internalType": "address",
          "name": "usedObject",
          "type": "address"
        },
        {
          "internalType": "uint256",
          "name": "usedNumber",
          "type": "uint256"
        },
        {
          "internalType": "bool",
          "name": "isDeleted",
          "type": "bool"
        }
      ],
      "stateMutability": "view",
      "type": "function"
    }
  ],
  "bytecode": "0x60806040523480156200001157600080fd5b5060405162002d3d38038062002d3d833981810160405281019062000037919062000634565b8160076000820151816000015560208201518160010155604082015181600201556060820151816003015560808201518160040160006101000a81548173ffffffffffffffffffffffffffffffffffffffff021916908373ffffffffffffffffffffffffffffffffffffffff16021790555060a0820151816005019080519060200190620000c792919062000194565b5060c0820151816006019080519060200190620000e692919062000194565b50905050806000808201518160000155602082015181600101556040820151816002015560608201518160030190805190602001906200012892919062000194565b5090505081600001517f4ecf9a103905132bdf8bbab09ad713fb620bf3e29bdb898369dd5aa6fb96bf01826000015183602001518460400151866040015187606001518860800151604051620001849695949392919062000735565b60405180910390a2505062000807565b828054620001a290620007d1565b90600052602060002090601f016020900481019282620001c6576000855562000212565b82601f10620001e157805160ff191683800117855562000212565b8280016001018555821562000212579182015b8281111562000211578251825591602001919060010190620001f4565b5b50905062000221919062000225565b5090565b5b808211156200024057600081600090555060010162000226565b5090565b6000604051905090565b600080fd5b600080fd5b600080fd5b6000601f19601f8301169050919050565b7f4e487b7100000000000000000000000000000000000000000000000000000000600052604160045260246000fd5b620002a8826200025d565b810181811067ffffffffffffffff82111715620002ca57620002c96200026e565b5b80604052505050565b6000620002df62000244565b9050620002ed82826200029d565b919050565b600080fd5b6000819050919050565b6200030c81620002f7565b81146200031857600080fd5b50565b6000815190506200032c8162000301565b92915050565b600073ffffffffffffffffffffffffffffffffffffffff82169050919050565b60006200035f8262000332565b9050919050565b620003718162000352565b81146200037d57600080fd5b50565b600081519050620003918162000366565b92915050565b600080fd5b600080fd5b600067ffffffffffffffff821115620003bf57620003be6200026e565b5b620003ca826200025d565b9050602081019050919050565b60005b83811015620003f7578082015181840152602081019050620003da565b8381111562000407576000848401525b50505050565b6000620004246200041e84620003a1565b620002d3565b9050828152602081018484840111156200044357620004426200039c565b5b62000450848285620003d7565b509392505050565b600082601f83011262000470576200046f62000397565b5b8151620004828482602086016200040d565b91505092915050565b600060e08284031215620004a457620004a362000258565b5b620004b060e0620002d3565b90506000620004c2848285016200031b565b6000830152506020620004d8848285016200031b565b6020830152506040620004ee848285016200031b565b604083015250606062000504848285016200031b565b60608301525060806200051a8482850162000380565b60808301525060a082015167ffffffffffffffff811115620005415762000540620002f2565b5b6200054f8482850162000458565b60a08301525060c082015167ffffffffffffffff811115620005765762000575620002f2565b5b620005848482850162000458565b60c08301525092915050565b600060808284031215620005a957620005a862000258565b5b620005b56080620002d3565b90506000620005c7848285016200031b565b6000830152506020620005dd848285016200031b565b6020830152506040620005f3848285016200031b565b604083015250606082015167ffffffffffffffff8111156200061a5762000619620002f2565b5b620006288482850162000458565b60608301525092915050565b600080604083850312156200064e576200064d6200024e565b5b600083015167ffffffffffffffff8111156200066f576200066e62000253565b5b6200067d858286016200048b565b925050602083015167ffffffffffffffff811115620006a157620006a062000253565b5b620006af8582860162000590565b9150509250929050565b620006c481620002f7565b82525050565b6000819050919050565b6000620006f5620006ef620006e98462000332565b620006ca565b62000332565b9050919050565b60006200070982620006d4565b9050919050565b60006200071d82620006fc565b9050919050565b6200072f8162000710565b82525050565b600060c0820190506200074c6000830189620006b9565b6200075b6020830188620006b9565b6200076a6040830187620006b9565b620007796060830186620006b9565b620007886080830185620006b9565b6200079760a083018462000724565b979650505050505050565b7f4e487b7100000000000000000000000000000000000000000000000000000000600052602260045260246000fd5b60006002820490506001821680620007ea57607f821691505b60208210811415620008015762000800620007a2565b5b50919050565b61252680620008176000396000f3fe608060405234801561001057600080fd5b50600436106100f55760003560e01c80636aefbacf11610097578063aec0be1311610066578063aec0be131461027d578063b1eed2f9146102b0578063cb5d372a146102ce578063ce3526e6146102ec576100f5565b80636aefbacf146101e25780638649524a14610215578063a49a5d0c14610231578063aaaae3421461024d576100f5565b806317fc45e2116100d357806317fc45e21461016d5780631beb26151461018e5780632d6d3062146101aa5780635b81d2e2146101c6576100f5565b80630465b1b1146100fa57806309788a881461012d5780630c69707a14610151575b600080fd5b610114600480360381019061010f919061161f565b610308565b60405161012494939291906116b7565b60405180910390f35b610135610375565b60405161014897969594939291906117b6565b60405180910390f35b61016b60048036038101906101669190611a55565b6104d5565b005b6101756105bc565b6040516101859493929190611a9e565b60405180910390f35b6101a860048036038101906101a39190611b16565b610662565b005b6101c460048036038101906101bf919061161f565b610701565b005b6101e060048036038101906101db9190611b43565b6107ff565b005b6101fc60048036038101906101f7919061161f565b61089e565b60405161020c9493929190611b70565b60405180910390f35b61022f600480360381019061022a9190611a55565b610986565b005b61024b60048036038101906102469190611b43565b610a6d565b005b61026760048036038101906102629190611b43565b610b0c565b6040516102749190611bbc565b60405180910390f35b6102976004803603810190610292919061161f565b610b2c565b6040516102a794939291906116b7565b60405180910390f35b6102b8610b99565b6040516102c59190611d08565b60405180910390f35b6102d6610c7d565b6040516102e39190611d08565b60405180910390f35b61030660048036038101906103019190611fb4565b610d61565b005b6005818154811061031857600080fd5b90600052602060002090600402016000915090508060000154908060010160009054906101000a900473ffffffffffffffffffffffffffffffffffffffff16908060020154908060030160009054906101000a900460ff16905084565b60078060000154908060010154908060020154908060030154908060040160009054906101000a900473ffffffffffffffffffffffffffffffffffffffff16908060050180546103c49061202c565b80601f01602080910402602001604051908101604052809291908181526020018280546103f09061202c565b801561043d5780601f106104125761010080835404028352916020019161043d565b820191906000526020600020905b81548152906001019060200180831161042057829003601f168201915b5050505050908060060180546104529061202c565b80601f016020809104026020016040519081016040528092919081815260200182805461047e9061202c565b80156104cb5780601f106104a0576101008083540402835291602001916104cb565b820191906000526020600020905b8154815290600101906020018083116104ae57829003601f168201915b5050505050905087565b600760040160009054906101000a900473ffffffffffffffffffffffffffffffffffffffff1673ffffffffffffffffffffffffffffffffffffffff163373ffffffffffffffffffffffffffffffffffffffff1614610568576040517f08c379a000000000000000000000000000000000000000000000000000000000815260040161055f906120d0565b60405180910390fd5b6007600301544211156105b0576040517f08c379a00000000000000000000000000000000000000000000000000000000081526004016105a79061213c565b60405180910390fd5b6105b981610f00565b50565b60008060000154908060010154908060020154908060030180546105df9061202c565b80601f016020809104026020016040519081016040528092919081815260200182805461060b9061202c565b80156106585780601f1061062d57610100808354040283529160200191610658565b820191906000526020600020905b81548152906001019060200180831161063b57829003601f168201915b5050505050905084565b600760040160009054906101000a900473ffffffffffffffffffffffffffffffffffffffff1673ffffffffffffffffffffffffffffffffffffffff163373ffffffffffffffffffffffffffffffffffffffff16146106f5576040517f08c379a00000000000000000000000000000000000000000000000000000000081526004016106ec906120d0565b60405180910390fd5b6106fe8161105c565b50565b3360011515600660008373ffffffffffffffffffffffffffffffffffffffff1673ffffffffffffffffffffffffffffffffffffffff16815260200190815260200160002060009054906101000a900460ff16151514610795576040517f08c379a000000000000000000000000000000000000000000000000000000000815260040161078c906121ce565b60405180910390fd5b816000600101548111156107de576040517f08c379a00000000000000000000000000000000000000000000000000000000081526004016107d590612260565b60405180910390fd5b82600060010160008282546107f391906122af565b92505081905550505050565b600760040160009054906101000a900473ffffffffffffffffffffffffffffffffffffffff1673ffffffffffffffffffffffffffffffffffffffff163373ffffffffffffffffffffffffffffffffffffffff1614610892576040517f08c379a0000000000000000000000000000000000000000000000000000000008152600401610889906120d0565b60405180910390fd5b61089b81611075565b50565b600e81815481106108ae57600080fd5b90600052602060002090600602016000915090508060000160009054906101000a900473ffffffffffffffffffffffffffffffffffffffff16908060010180546108f79061202c565b80601f01602080910402602001604051908101604052809291908181526020018280546109239061202c565b80156109705780601f1061094557610100808354040283529160200191610970565b820191906000526020600020905b81548152906001019060200180831161095357829003601f168201915b5050505050908060040154908060050154905084565b600760040160009054906101000a900473ffffffffffffffffffffffffffffffffffffffff1673ffffffffffffffffffffffffffffffffffffffff163373ffffffffffffffffffffffffffffffffffffffff1614610a19576040517f08c379a0000000000000000000000000000000000000000000000000000000008152600401610a10906120d0565b60405180910390fd5b600760030154421115610a61576040517f08c379a0000000000000000000000000000000000000000000000000000000008152600401610a589061213c565b60405180910390fd5b610a6a81611158565b50565b600760040160009054906101000a900473ffffffffffffffffffffffffffffffffffffffff1673ffffffffffffffffffffffffffffffffffffffff163373ffffffffffffffffffffffffffffffffffffffff1614610b00576040517f08c379a0000000000000000000000000000000000000000000000000000000008152600401610af7906120d0565b60405180910390fd5b610b09816112e5565b50565b60066020528060005260406000206000915054906101000a900460ff1681565b60048181548110610b3c57600080fd5b90600052602060002090600402016000915090508060000154908060010160009054906101000a900473ffffffffffffffffffffffffffffffffffffffff16908060020154908060030160009054906101000a900460ff16905084565b60606005805480602002602001604051908101604052809291908181526020016000905b82821015610c745783829060005260206000209060040201604051806080016040529081600082015481526020016001820160009054906101000a900473ffffffffffffffffffffffffffffffffffffffff1673ffffffffffffffffffffffffffffffffffffffff1673ffffffffffffffffffffffffffffffffffffffff168152602001600282015481526020016003820160009054906101000a900460ff16151515158152505081526020019060010190610bbd565b50505050905090565b60606004805480602002602001604051908101604052809291908181526020016000905b82821015610d585783829060005260206000209060040201604051806080016040529081600082015481526020016001820160009054906101000a900473ffffffffffffffffffffffffffffffffffffffff1673ffffffffffffffffffffffffffffffffffffffff1673ffffffffffffffffffffffffffffffffffffffff168152602001600282015481526020016003820160009054906101000a900460ff16151515158152505081526020019060010190610ca1565b50505050905090565b80600001518073ffffffffffffffffffffffffffffffffffffffff163373ffffffffffffffffffffffffffffffffffffffff1614610dd4576040517f08c379a0000000000000000000000000000000000000000000000000000000008152600401610dcb90612355565b60405180910390fd5b600760030154421115610e1c576040517f08c379a0000000000000000000000000000000000000000000000000000000008152600401610e139061213c565b60405180910390fd5b600e82908060018154018082558091505060019003906000526020600020906006020160009091909190915060008201518160000160006101000a81548173ffffffffffffffffffffffffffffffffffffffff021916908373ffffffffffffffffffffffffffffffffffffffff1602179055506020820151816001019080519060200190610eab92919061146e565b506040820151816002019080519060200190610ec89291906114f4565b506060820151816003019080519060200190610ee59291906114f4565b506080820151816004015560a0820151816005015550505050565b60005b8151811015611058576005828281518110610f2157610f20612375565b5b602002602001015190806001815401808255809150506001900390600052602060002090600402016000909190919091506000820151816000015560208201518160010160006101000a81548173ffffffffffffffffffffffffffffffffffffffff021916908373ffffffffffffffffffffffffffffffffffffffff1602179055506040820151816002015560608201518160030160006101000a81548160ff0219169083151502179055505050600160066000848481518110610fe857610fe7612375565b5b60200260200101516020015173ffffffffffffffffffffffffffffffffffffffff1673ffffffffffffffffffffffffffffffffffffffff16815260200190815260200160002060006101000a81548160ff0219169083151502179055508080611050906123a4565b915050610f03565b5050565b8073ffffffffffffffffffffffffffffffffffffffff16ff5b60005b600480549050811015611154578173ffffffffffffffffffffffffffffffffffffffff16600482815481106110b0576110af612375565b5b906000526020600020906004020160010160009054906101000a900473ffffffffffffffffffffffffffffffffffffffff1673ffffffffffffffffffffffffffffffffffffffff1614156111415760016004828154811061111457611113612375565b5b906000526020600020906004020160030160006101000a81548160ff021916908315150217905550611154565b808061114c906123a4565b915050611078565b5050565b60005b81518110156112e157600482828151811061117957611178612375565b5b602002602001015190806001815401808255809150506001900390600052602060002090600402016000909190919091506000820151816000015560208201518160010160006101000a81548173ffffffffffffffffffffffffffffffffffffffff021916908373ffffffffffffffffffffffffffffffffffffffff1602179055506040820151816002015560608201518160030160006101000a81548160ff021916908315150217905550505081818151811061123a57611239612375565b5b60200260200101516020015173ffffffffffffffffffffffffffffffffffffffff16632d6d306283838151811061127457611273612375565b5b6020026020010151604001516040518263ffffffff1660e01b815260040161129c91906123ed565b600060405180830381600087803b1580156112b657600080fd5b505af11580156112ca573d6000803e3d6000fd5b5050505080806112d9906123a4565b91505061115b565b5050565b60005b6005805490508110156113f2578173ffffffffffffffffffffffffffffffffffffffff16600582815481106113205761131f612375565b5b906000526020600020906004020160010160009054906101000a900473ffffffffffffffffffffffffffffffffffffffff1673ffffffffffffffffffffffffffffffffffffffff1614156113df5760016005828154811061138457611383612375565b5b906000526020600020906004020160030160006101000a81548160ff0219169083151502179055506113da600582815481106113c3576113c2612375565b5b9060005260206000209060040201600201546113f6565b6113f2565b80806113ea906123a4565b9150506112e8565b5050565b8060008001546000600101548261140d9190612408565b111561144e576040517f08c379a0000000000000000000000000000000000000000000000000000000008152600401611445906124d0565b60405180910390fd5b81600060010160008282546114639190612408565b925050819055505050565b82805461147a9061202c565b90600052602060002090601f01602090048101928261149c57600085556114e3565b82601f106114b557805160ff19168380011785556114e3565b828001600101855582156114e3579182015b828111156114e25782518255916020019190600101906114c7565b5b5090506114f09190611554565b5090565b828054828255906000526020600020908101928215611543579160200282015b8281111561154257825182908051906020019061153292919061146e565b5091602001919060010190611514565b5b5090506115509190611571565b5090565b5b8082111561156d576000816000905550600101611555565b5090565b5b8082111561159157600081816115889190611595565b50600101611572565b5090565b5080546115a19061202c565b6000825580601f106115b357506115d2565b601f0160209004906000526020600020908101906115d19190611554565b5b50565b6000604051905090565b600080fd5b600080fd5b6000819050919050565b6115fc816115e9565b811461160757600080fd5b50565b600081359050611619816115f3565b92915050565b600060208284031215611635576116346115df565b5b60006116438482850161160a565b91505092915050565b611655816115e9565b82525050565b600073ffffffffffffffffffffffffffffffffffffffff82169050919050565b60006116868261165b565b9050919050565b6116968161167b565b82525050565b60008115159050919050565b6116b18161169c565b82525050565b60006080820190506116cc600083018761164c565b6116d9602083018661168d565b6116e6604083018561164c565b6116f360608301846116a8565b95945050505050565b60006117078261165b565b9050919050565b611717816116fc565b82525050565b600081519050919050565b600082825260208201905092915050565b60005b8381101561175757808201518184015260208101905061173c565b83811115611766576000848401525b50505050565b6000601f19601f8301169050919050565b60006117888261171d565b6117928185611728565b93506117a2818560208601611739565b6117ab8161176c565b840191505092915050565b600060e0820190506117cb600083018a61164c565b6117d8602083018961164c565b6117e5604083018861164c565b6117f2606083018761164c565b6117ff608083018661170e565b81810360a0830152611811818561177d565b905081810360c0830152611825818461177d565b905098975050505050505050565b600080fd5b7f4e487b7100000000000000000000000000000000000000000000000000000000600052604160045260246000fd5b6118708261176c565b810181811067ffffffffffffffff8211171561188f5761188e611838565b5b80604052505050565b60006118a26115d5565b90506118ae8282611867565b919050565b600067ffffffffffffffff8211156118ce576118cd611838565b5b602082029050602081019050919050565b600080fd5b600080fd5b600080fd5b6118f78161167b565b811461190257600080fd5b50565b600081359050611914816118ee565b92915050565b6119238161169c565b811461192e57600080fd5b50565b6000813590506119408161191a565b92915050565b60006080828403121561195c5761195b6118e4565b5b6119666080611898565b905060006119768482850161160a565b600083015250602061198a84828501611905565b602083015250604061199e8482850161160a565b60408301525060606119b284828501611931565b60608301525092915050565b60006119d16119cc846118b3565b611898565b905080838252602082019050608084028301858111156119f4576119f36118df565b5b835b81811015611a1d5780611a098882611946565b8452602084019350506080810190506119f6565b5050509392505050565b600082601f830112611a3c57611a3b611833565b5b8135611a4c8482602086016119be565b91505092915050565b600060208284031215611a6b57611a6a6115df565b5b600082013567ffffffffffffffff811115611a8957611a886115e4565b5b611a9584828501611a27565b91505092915050565b6000608082019050611ab3600083018761164c565b611ac0602083018661164c565b611acd604083018561164c565b8181036060830152611adf818461177d565b905095945050505050565b611af3816116fc565b8114611afe57600080fd5b50565b600081359050611b1081611aea565b92915050565b600060208284031215611b2c57611b2b6115df565b5b6000611b3a84828501611b01565b91505092915050565b600060208284031215611b5957611b586115df565b5b6000611b6784828501611905565b91505092915050565b6000608082019050611b85600083018761168d565b8181036020830152611b97818661177d565b9050611ba6604083018561164c565b611bb3606083018461164c565b95945050505050565b6000602082019050611bd160008301846116a8565b92915050565b600081519050919050565b600082825260208201905092915050565b6000819050602082019050919050565b611c0c816115e9565b82525050565b611c1b8161167b565b82525050565b611c2a8161169c565b82525050565b608082016000820151611c466000850182611c03565b506020820151611c596020850182611c12565b506040820151611c6c6040850182611c03565b506060820151611c7f6060850182611c21565b50505050565b6000611c918383611c30565b60808301905092915050565b6000602082019050919050565b6000611cb582611bd7565b611cbf8185611be2565b9350611cca83611bf3565b8060005b83811015611cfb578151611ce28882611c85565b9750611ced83611c9d565b925050600181019050611cce565b5085935050505092915050565b60006020820190508181036000830152611d228184611caa565b905092915050565b600080fd5b600067ffffffffffffffff821115611d4a57611d49611838565b5b611d538261176c565b9050602081019050919050565b82818337600083830152505050565b6000611d82611d7d84611d2f565b611898565b905082815260208101848484011115611d9e57611d9d611d2a565b5b611da9848285611d60565b509392505050565b600082601f830112611dc657611dc5611833565b5b8135611dd6848260208601611d6f565b91505092915050565b600067ffffffffffffffff821115611dfa57611df9611838565b5b602082029050602081019050919050565b6000611e1e611e1984611ddf565b611898565b90508083825260208201905060208402830185811115611e4157611e406118df565b5b835b81811015611e8857803567ffffffffffffffff811115611e6657611e65611833565b5b808601611e738982611db1565b85526020850194505050602081019050611e43565b5050509392505050565b600082601f830112611ea757611ea6611833565b5b8135611eb7848260208601611e0b565b91505092915050565b600060c08284031215611ed657611ed56118e4565b5b611ee060c0611898565b90506000611ef084828501611905565b600083015250602082013567ffffffffffffffff811115611f1457611f136118e9565b5b611f2084828501611db1565b602083015250604082013567ffffffffffffffff811115611f4457611f436118e9565b5b611f5084828501611e92565b604083015250606082013567ffffffffffffffff811115611f7457611f736118e9565b5b611f8084828501611e92565b6060830152506080611f948482850161160a565b60808301525060a0611fa88482850161160a565b60a08301525092915050565b600060208284031215611fca57611fc96115df565b5b600082013567ffffffffffffffff811115611fe857611fe76115e4565b5b611ff484828501611ec0565b91505092915050565b7f4e487b7100000000000000000000000000000000000000000000000000000000600052602260045260246000fd5b6000600282049050600182168061204457607f821691505b6020821081141561205857612057611ffd565b5b50919050565b7f4974656d3a2043616c6c6572206973206e6f7420612076616c6964206f72676160008201527f6e697a6174696f6e000000000000000000000000000000000000000000000000602082015250565b60006120ba602883611728565b91506120c58261205e565b604082019050919050565b600060208201905081810360008301526120e9816120ad565b9050919050565b7f4974656d3a2054686973206974656d20686173206265656e2065787069726564600082015250565b6000612126602083611728565b9150612131826120f0565b602082019050919050565b6000602082019050818103600083015261215581612119565b9050919050565b7f547261636561626c654f626a6563743a204974656d206973206e6f7420696e2060008201527f64657374696e6174696f6e000000000000000000000000000000000000000000602082015250565b60006121b8602b83611728565b91506121c38261215c565b604082019050919050565b600060208201905081810360008301526121e7816121ab565b9050919050565b7f547261636561626c654f626a6563743a207175616e74697479206973206e6f7460008201527f20656e6f75676800000000000000000000000000000000000000000000000000602082015250565b600061224a602783611728565b9150612255826121ee565b604082019050919050565b600060208201905081810360008301526122798161223d565b9050919050565b7f4e487b7100000000000000000000000000000000000000000000000000000000600052601160045260246000fd5b60006122ba826115e9565b91506122c5836115e9565b9250828210156122d8576122d7612280565b5b828203905092915050565b7f4974656d3a2050726f636564757265446174612063616e206f6e6c792062652060008201527f61646465642062792070726f6465637572650000000000000000000000000000602082015250565b600061233f603283611728565b915061234a826122e3565b604082019050919050565b6000602082019050818103600083015261236e81612332565b9050919050565b7f4e487b7100000000000000000000000000000000000000000000000000000000600052603260045260246000fd5b60006123af826115e9565b91507fffffffffffffffffffffffffffffffffffffffffffffffffffffffffffffffff8214156123e2576123e1612280565b5b600182019050919050565b6000602082019050612402600083018461164c565b92915050565b6000612413826115e9565b915061241e836115e9565b9250827fffffffffffffffffffffffffffffffffffffffffffffffffffffffffffffffff0382111561245357612452612280565b5b828201905092915050565b7f547261636561626c654f626a6563743a207175616e746974792065786365656460008201527f732070726f6475636564206e756d626572000000000000000000000000000000602082015250565b60006124ba603183611728565b91506124c58261245e565b604082019050919050565b600060208201905081810360008301526124e9816124ad565b905091905056fea2646970667358221220ccc2ae7806c8d605c8c7b7a9171738aef89eff44a68dbf0da25295a77f1d720864736f6c63430008090033",
  "linkReferences": {},
  "deployedLinkReferences": {}
}