{
  "_format": "hh-sol-artifact-1",
  "contractName": "Item",
  "sourceName": "contracts/Item.sol",
  "abi": [
    {
      "inputs": [
        {
          "components": [
            {
              "internalType": "uint256",
              "name": "shid",
              "type": "uint256"
            },
            {
              "internalType": "uint256",
              "name": "organizationID",
              "type": "uint256"
            },
            {
              "internalType": "uint256",
              "name": "producedDate",
              "type": "uint256"
            },
            {
              "internalType": "uint256",
              "name": "expirationDate",
              "type": "uint256"
            },
            {
              "internalType": "address payable",
              "name": "organization",
              "type": "address"
            },
            {
              "internalType": "string",
              "name": "name",
              "type": "string"
            },
            {
              "internalType": "string",
              "name": "organizationName",
              "type": "string"
            }
          ],
          "internalType": "struct Item.ItemData",
          "name": "_itemData",
          "type": "tuple"
        },
        {
          "components": [
            {
              "internalType": "uint256",
              "name": "producedNumber",
              "type": "uint256"
            },
            {
              "internalType": "uint256",
              "name": "restNumber",
              "type": "uint256"
            },
            {
              "internalType": "uint256",
              "name": "packNumber",
              "type": "uint256"
            },
            {
              "internalType": "string",
              "name": "unit",
              "type": "string"
            }
          ],
          "internalType": "struct TraceableObject.Quantity",
          "name": "_quantity",
          "type": "tuple"
        }
      ],
      "stateMutability": "nonpayable",
      "type": "constructor"
    },
    {
      "anonymous": false,
      "inputs": [
        {
          "indexed": true,
          "internalType": "uint256",
          "name": "shid",
          "type": "uint256"
        },
        {
          "indexed": false,
          "internalType": "uint256",
          "name": "producedNumber",
          "type": "uint256"
        },
        {
          "indexed": false,
          "internalType": "uint256",
          "name": "restNumber",
          "type": "uint256"
        },
        {
          "indexed": false,
          "internalType": "uint256",
          "name": "packNumber",
          "type": "uint256"
        },
        {
          "indexed": false,
          "internalType": "uint256",
          "name": "producedDate",
          "type": "uint256"
        },
        {
          "indexed": false,
          "internalType": "uint256",
          "name": "expirationDate",
          "type": "uint256"
        },
        {
          "indexed": false,
          "internalType": "address",
          "name": "organization",
          "type": "address"
        }
      ],
      "name": "ItemCreated",
      "type": "event"
    },
    {
      "inputs": [
        {
          "components": [
            {
              "internalType": "uint256",
              "name": "id",
              "type": "uint256"
            },
            {
              "internalType": "address",
              "name": "usedObject",
              "type": "address"
            },
            {
              "internalType": "uint256",
              "name": "usedNumber",
              "type": "uint256"
            },
            {
              "internalType": "bool",
              "name": "isDeleted",
              "type": "bool"
            }
          ],
          "internalType": "struct TraceableObject.TraceData[]",
          "name": "_dests",
          "type": "tuple[]"
        }
      ],
      "name": "addDests",
      "outputs": [],
      "stateMutability": "nonpayable",
      "type": "function"
    },
    {
      "inputs": [
        {
          "components": [
            {
              "internalType": "address",
              "name": "procedure",
              "type": "address"
            },
            {
              "internalType": "string",
              "name": "name",
              "type": "string"
            },
            {
              "internalType": "string[]",
              "name": "mediaList",
              "type": "string[]"
            },
            {
              "internalType": "string[]",
              "name": "sensorList",
              "type": "string[]"
            },
            {
              "internalType": "uint256",
              "name": "startTime",
              "type": "uint256"
            },
            {
              "internalType": "uint256",
              "name": "endTime",
              "type": "uint256"
            }
          ],
          "internalType": "struct Item.ProcedureData",
          "name": "_procedureData",
          "type": "tuple"
        }
      ],
      "name": "addProcedure",
      "outputs": [],
      "stateMutability": "nonpayable",
      "type": "function"
    },
    {
      "inputs": [
        {
          "components": [
            {
              "internalType": "uint256",
              "name": "id",
              "type": "uint256"
            },
            {
              "internalType": "address",
              "name": "usedObject",
              "type": "address"
            },
            {
              "internalType": "uint256",
              "name": "usedNumber",
              "type": "uint256"
            },
            {
              "internalType": "bool",
              "name": "isDeleted",
              "type": "bool"
            }
          ],
          "internalType": "struct TraceableObject.TraceData[]",
          "name": "_sources",
          "type": "tuple[]"
        }
      ],
      "name": "addSources",
      "outputs": [],
      "stateMutability": "nonpayable",
      "type": "function"
    },
    {
      "inputs": [
        {
          "internalType": "uint256",
          "name": "_number",
          "type": "uint256"
        }
      ],
      "name": "decrease",
      "outputs": [],
      "stateMutability": "nonpayable",
      "type": "function"
    },
    {
      "inputs": [
        {
          "internalType": "address",
          "name": "_object",
          "type": "address"
        }
      ],
      "name": "delDest",
      "outputs": [],
      "stateMutability": "nonpayable",
      "type": "function"
    },
    {
      "inputs": [
        {
          "internalType": "address",
          "name": "_object",
          "type": "address"
        }
      ],
      "name": "delSource",
      "outputs": [],
      "stateMutability": "nonpayable",
      "type": "function"
    },
    {
      "inputs": [
        {
          "internalType": "uint256",
          "name": "",
          "type": "uint256"
        }
      ],
      "name": "destinationList",
      "outputs": [
        {
          "internalType": "uint256",
          "name": "id",
          "type": "uint256"
        },
        {
          "internalType": "address",
          "name": "usedObject",
          "type": "address"
        },
        {
          "internalType": "uint256",
          "name": "usedNumber",
          "type": "uint256"
        },
        {
          "internalType": "bool",
          "name": "isDeleted",
          "type": "bool"
        }
      ],
      "stateMutability": "view",
      "type": "function"
    },
    {
      "inputs": [
        {
          "internalType": "address payable",
          "name": "to",
          "type": "address"
        }
      ],
      "name": "destruct",
      "outputs": [],
      "stateMutability": "nonpayable",
      "type": "function"
    },
    {
      "inputs": [],
      "name": "getDestinationList",
      "outputs": [
        {
          "components": [
            {
              "internalType": "uint256",
              "name": "id",
              "type": "uint256"
            },
            {
              "internalType": "address",
              "name": "usedObject",
              "type": "address"
            },
            {
              "internalType": "uint256",
              "name": "usedNumber",
              "type": "uint256"
            },
            {
              "internalType": "bool",
              "name": "isDeleted",
              "type": "bool"
            }
          ],
          "internalType": "struct TraceableObject.TraceData[]",
          "name": "",
          "type": "tuple[]"
        }
      ],
      "stateMutability": "view",
      "type": "function"
    },
    {
      "inputs": [],
      "name": "getSourceList",
      "outputs": [
        {
          "components": [
            {
              "internalType": "uint256",
              "name": "id",
              "type": "uint256"
            },
            {
              "internalType": "address",
              "name": "usedObject",
              "type": "address"
            },
            {
              "internalType": "uint256",
              "name": "usedNumber",
              "type": "uint256"
            },
            {
              "internalType": "bool",
              "name": "isDeleted",
              "type": "bool"
            }
          ],
          "internalType": "struct TraceableObject.TraceData[]",
          "name": "",
          "type": "tuple[]"
        }
      ],
      "stateMutability": "view",
      "type": "function"
    },
    {
      "inputs": [
        {
          "internalType": "address",
          "name": "",
          "type": "address"
        }
      ],
      "name": "isDestination",
      "outputs": [
        {
          "internalType": "bool",
          "name": "",
          "type": "bool"
        }
      ],
      "stateMutability": "view",
      "type": "function"
    },
    {
      "inputs": [],
      "name": "itemData",
      "outputs": [
        {
          "internalType": "uint256",
          "name": "shid",
          "type": "uint256"
        },
        {
          "internalType": "uint256",
          "name": "organizationID",
          "type": "uint256"
        },
        {
          "internalType": "uint256",
          "name": "producedDate",
          "type": "uint256"
        },
        {
          "internalType": "uint256",
          "name": "expirationDate",
          "type": "uint256"
        },
        {
          "internalType": "address payable",
          "name": "organization",
          "type": "address"
        },
        {
          "internalType": "string",
          "name": "name",
          "type": "string"
        },
        {
          "internalType": "string",
          "name": "organizationName",
          "type": "string"
        }
      ],
      "stateMutability": "view",
      "type": "function"
    },
    {
      "inputs": [
        {
          "internalType": "address",
          "name": "_object",
          "type": "address"
        }
      ],
      "name": "markDestDeleted",
      "outputs": [],
      "stateMutability": "nonpayable",
      "type": "function"
    },
    {
      "inputs": [
        {
          "internalType": "uint256",
          "name": "",
          "type": "uint256"
        }
      ],
      "name": "procedureList",
      "outputs": [
        {
          "internalType": "address",
          "name": "procedure",
          "type": "address"
        },
        {
          "internalType": "string",
          "name": "name",
          "type": "string"
        },
        {
          "internalType": "uint256",
          "name": "startTime",
          "type": "uint256"
        },
        {
          "internalType": "uint256",
          "name": "endTime",
          "type": "uint256"
        }
      ],
      "stateMutability": "view",
      "type": "function"
    },
    {
      "inputs": [],
      "name": "quantity",
      "outputs": [
        {
          "internalType": "uint256",
          "name": "producedNumber",
          "type": "uint256"
        },
        {
          "internalType": "uint256",
          "name": "restNumber",
          "type": "uint256"
        },
        {
          "internalType": "uint256",
          "name": "packNumber",
          "type": "uint256"
        },
        {
          "internalType": "string",
          "name": "unit",
          "type": "string"
        }
      ],
      "stateMutability": "view",
      "type": "function"
    },
    {
      "inputs": [
        {
          "internalType": "uint256",
          "name": "",
          "type": "uint256"
        }
      ],
      "name": "sourceList",
      "outputs": [
        {
          "internalType": "uint256",
          "name": "id",
          "type": "uint256"
        },
        {
          "internalType": "address",
          "name": "usedObject",
          "type": "address"
        },
        {
          "internalType": "uint256",
          "name": "usedNumber",
          "type": "uint256"
        },
        {
          "internalType": "bool",
          "name": "isDeleted",
          "type": "bool"
        }
      ],
      "stateMutability": "view",
      "type": "function"
    }
  ],
  "bytecode": "0x60806040523480156200001157600080fd5b5060405162002ee638038062002ee6833981810160405281019062000037919062000634565b8160076000820151816000015560208201518160010155604082015181600201556060820151816003015560808201518160040160006101000a81548173ffffffffffffffffffffffffffffffffffffffff021916908373ffffffffffffffffffffffffffffffffffffffff16021790555060a0820151816005019080519060200190620000c792919062000194565b5060c0820151816006019080519060200190620000e692919062000194565b50905050806000808201518160000155602082015181600101556040820151816002015560608201518160030190805190602001906200012892919062000194565b5090505081600001517f4ecf9a103905132bdf8bbab09ad713fb620bf3e29bdb898369dd5aa6fb96bf01826000015183602001518460400151866040015187606001518860800151604051620001849695949392919062000735565b60405180910390a2505062000807565b828054620001a290620007d1565b90600052602060002090601f016020900481019282620001c6576000855562000212565b82601f10620001e157805160ff191683800117855562000212565b8280016001018555821562000212579182015b8281111562000211578251825591602001919060010190620001f4565b5b50905062000221919062000225565b5090565b5b808211156200024057600081600090555060010162000226565b5090565b6000604051905090565b600080fd5b600080fd5b600080fd5b6000601f19601f8301169050919050565b7f4e487b7100000000000000000000000000000000000000000000000000000000600052604160045260246000fd5b620002a8826200025d565b810181811067ffffffffffffffff82111715620002ca57620002c96200026e565b5b80604052505050565b6000620002df62000244565b9050620002ed82826200029d565b919050565b600080fd5b6000819050919050565b6200030c81620002f7565b81146200031857600080fd5b50565b6000815190506200032c8162000301565b92915050565b600073ffffffffffffffffffffffffffffffffffffffff82169050919050565b60006200035f8262000332565b9050919050565b620003718162000352565b81146200037d57600080fd5b50565b600081519050620003918162000366565b92915050565b600080fd5b600080fd5b600067ffffffffffffffff821115620003bf57620003be6200026e565b5b620003ca826200025d565b9050602081019050919050565b60005b83811015620003f7578082015181840152602081019050620003da565b8381111562000407576000848401525b50505050565b6000620004246200041e84620003a1565b620002d3565b9050828152602081018484840111156200044357620004426200039c565b5b62000450848285620003d7565b509392505050565b600082601f83011262000470576200046f62000397565b5b8151620004828482602086016200040d565b91505092915050565b600060e08284031215620004a457620004a362000258565b5b620004b060e0620002d3565b90506000620004c2848285016200031b565b6000830152506020620004d8848285016200031b565b6020830152506040620004ee848285016200031b565b604083015250606062000504848285016200031b565b60608301525060806200051a8482850162000380565b60808301525060a082015167ffffffffffffffff811115620005415762000540620002f2565b5b6200054f8482850162000458565b60a08301525060c082015167ffffffffffffffff811115620005765762000575620002f2565b5b620005848482850162000458565b60c08301525092915050565b600060808284031215620005a957620005a862000258565b5b620005b56080620002d3565b90506000620005c7848285016200031b565b6000830152506020620005dd848285016200031b565b6020830152506040620005f3848285016200031b565b604083015250606082015167ffffffffffffffff8111156200061a5762000619620002f2565b5b620006288482850162000458565b60608301525092915050565b600080604083850312156200064e576200064d6200024e565b5b600083015167ffffffffffffffff8111156200066f576200066e62000253565b5b6200067d858286016200048b565b925050602083015167ffffffffffffffff811115620006a157620006a062000253565b5b620006af8582860162000590565b9150509250929050565b620006c481620002f7565b82525050565b6000819050919050565b6000620006f5620006ef620006e98462000332565b620006ca565b62000332565b9050919050565b60006200070982620006d4565b9050919050565b60006200071d82620006fc565b9050919050565b6200072f8162000710565b82525050565b600060c0820190506200074c6000830189620006b9565b6200075b6020830188620006b9565b6200076a6040830187620006b9565b620007796060830186620006b9565b620007886080830185620006b9565b6200079760a083018462000724565b979650505050505050565b7f4e487b7100000000000000000000000000000000000000000000000000000000600052602260045260246000fd5b60006002820490506001821680620007ea57607f821691505b60208210811415620008015762000800620007a2565b5b50919050565b6126cf80620008176000396000f3fe608060405234801561001057600080fd5b50600436106101005760003560e01c80636aefbacf11610097578063aec0be1311610066578063aec0be13146102a4578063b1eed2f9146102d7578063cb5d372a146102f5578063ce3526e61461031357610100565b80636aefbacf146102095780638649524a1461023c578063a49a5d0c14610258578063aaaae3421461027457610100565b80631beb2615116100d35780631beb261514610199578063211e375d146101b55780632d6d3062146101d15780635b81d2e2146101ed57610100565b80630465b1b11461010557806309788a88146101385780630c69707a1461015c57806317fc45e214610178575b600080fd5b61011f600480360381019061011a91906117c8565b61032f565b60405161012f9493929190611860565b60405180910390f35b61014061039c565b604051610153979695949392919061195f565b60405180910390f35b61017660048036038101906101719190611bfe565b6104fc565b005b6101806105e3565b6040516101909493929190611c47565b60405180910390f35b6101b360048036038101906101ae9190611cbf565b610689565b005b6101cf60048036038101906101ca9190611cec565b610728565b005b6101eb60048036038101906101e691906117c8565b6107c7565b005b61020760048036038101906102029190611cec565b6108c5565b005b610223600480360381019061021e91906117c8565b610964565b6040516102339493929190611d19565b60405180910390f35b61025660048036038101906102519190611bfe565b610a4c565b005b610272600480360381019061026d9190611cec565b610b33565b005b61028e60048036038101906102899190611cec565b610bd2565b60405161029b9190611d65565b60405180910390f35b6102be60048036038101906102b991906117c8565b610bf2565b6040516102ce9493929190611860565b60405180910390f35b6102df610c5f565b6040516102ec9190611eb1565b60405180910390f35b6102fd610d43565b60405161030a9190611eb1565b60405180910390f35b61032d6004803603810190610328919061215d565b610e27565b005b6005818154811061033f57600080fd5b90600052602060002090600402016000915090508060000154908060010160009054906101000a900473ffffffffffffffffffffffffffffffffffffffff16908060020154908060030160009054906101000a900460ff16905084565b60078060000154908060010154908060020154908060030154908060040160009054906101000a900473ffffffffffffffffffffffffffffffffffffffff16908060050180546103eb906121d5565b80601f0160208091040260200160405190810160405280929190818152602001828054610417906121d5565b80156104645780601f1061043957610100808354040283529160200191610464565b820191906000526020600020905b81548152906001019060200180831161044757829003601f168201915b505050505090806006018054610479906121d5565b80601f01602080910402602001604051908101604052809291908181526020018280546104a5906121d5565b80156104f25780601f106104c7576101008083540402835291602001916104f2565b820191906000526020600020905b8154815290600101906020018083116104d557829003601f168201915b5050505050905087565b600760040160009054906101000a900473ffffffffffffffffffffffffffffffffffffffff1673ffffffffffffffffffffffffffffffffffffffff163373ffffffffffffffffffffffffffffffffffffffff161461058f576040517f08c379a000000000000000000000000000000000000000000000000000000000815260040161058690612279565b60405180910390fd5b6007600301544211156105d7576040517f08c379a00000000000000000000000000000000000000000000000000000000081526004016105ce906122e5565b60405180910390fd5b6105e081610fc6565b50565b6000806000015490806001015490806002015490806003018054610606906121d5565b80601f0160208091040260200160405190810160405280929190818152602001828054610632906121d5565b801561067f5780601f106106545761010080835404028352916020019161067f565b820191906000526020600020905b81548152906001019060200180831161066257829003601f168201915b5050505050905084565b600760040160009054906101000a900473ffffffffffffffffffffffffffffffffffffffff1673ffffffffffffffffffffffffffffffffffffffff163373ffffffffffffffffffffffffffffffffffffffff161461071c576040517f08c379a000000000000000000000000000000000000000000000000000000000815260040161071390612279565b60405180910390fd5b61072581611122565b50565b600760040160009054906101000a900473ffffffffffffffffffffffffffffffffffffffff1673ffffffffffffffffffffffffffffffffffffffff163373ffffffffffffffffffffffffffffffffffffffff16146107bb576040517f08c379a00000000000000000000000000000000000000000000000000000000081526004016107b290612279565b60405180910390fd5b6107c48161113b565b50565b3360011515600660008373ffffffffffffffffffffffffffffffffffffffff1673ffffffffffffffffffffffffffffffffffffffff16815260200190815260200160002060009054906101000a900460ff1615151461085b576040517f08c379a000000000000000000000000000000000000000000000000000000000815260040161085290612377565b60405180910390fd5b816000600101548111156108a4576040517f08c379a000000000000000000000000000000000000000000000000000000000815260040161089b90612409565b60405180910390fd5b82600060010160008282546108b99190612458565b92505081905550505050565b600760040160009054906101000a900473ffffffffffffffffffffffffffffffffffffffff1673ffffffffffffffffffffffffffffffffffffffff163373ffffffffffffffffffffffffffffffffffffffff1614610958576040517f08c379a000000000000000000000000000000000000000000000000000000000815260040161094f90612279565b60405180910390fd5b6109618161121e565b50565b600e818154811061097457600080fd5b90600052602060002090600602016000915090508060000160009054906101000a900473ffffffffffffffffffffffffffffffffffffffff16908060010180546109bd906121d5565b80601f01602080910402602001604051908101604052809291908181526020018280546109e9906121d5565b8015610a365780601f10610a0b57610100808354040283529160200191610a36565b820191906000526020600020905b815481529060010190602001808311610a1957829003601f168201915b5050505050908060040154908060050154905084565b600760040160009054906101000a900473ffffffffffffffffffffffffffffffffffffffff1673ffffffffffffffffffffffffffffffffffffffff163373ffffffffffffffffffffffffffffffffffffffff1614610adf576040517f08c379a0000000000000000000000000000000000000000000000000000000008152600401610ad690612279565b60405180910390fd5b600760030154421115610b27576040517f08c379a0000000000000000000000000000000000000000000000000000000008152600401610b1e906122e5565b60405180910390fd5b610b3081611301565b50565b600760040160009054906101000a900473ffffffffffffffffffffffffffffffffffffffff1673ffffffffffffffffffffffffffffffffffffffff163373ffffffffffffffffffffffffffffffffffffffff1614610bc6576040517f08c379a0000000000000000000000000000000000000000000000000000000008152600401610bbd90612279565b60405180910390fd5b610bcf8161148e565b50565b60066020528060005260406000206000915054906101000a900460ff1681565b60048181548110610c0257600080fd5b90600052602060002090600402016000915090508060000154908060010160009054906101000a900473ffffffffffffffffffffffffffffffffffffffff16908060020154908060030160009054906101000a900460ff16905084565b60606005805480602002602001604051908101604052809291908181526020016000905b82821015610d3a5783829060005260206000209060040201604051806080016040529081600082015481526020016001820160009054906101000a900473ffffffffffffffffffffffffffffffffffffffff1673ffffffffffffffffffffffffffffffffffffffff1673ffffffffffffffffffffffffffffffffffffffff168152602001600282015481526020016003820160009054906101000a900460ff16151515158152505081526020019060010190610c83565b50505050905090565b60606004805480602002602001604051908101604052809291908181526020016000905b82821015610e1e5783829060005260206000209060040201604051806080016040529081600082015481526020016001820160009054906101000a900473ffffffffffffffffffffffffffffffffffffffff1673ffffffffffffffffffffffffffffffffffffffff1673ffffffffffffffffffffffffffffffffffffffff168152602001600282015481526020016003820160009054906101000a900460ff16151515158152505081526020019060010190610d67565b50505050905090565b80600001518073ffffffffffffffffffffffffffffffffffffffff163373ffffffffffffffffffffffffffffffffffffffff1614610e9a576040517f08c379a0000000000000000000000000000000000000000000000000000000008152600401610e91906124fe565b60405180910390fd5b600760030154421115610ee2576040517f08c379a0000000000000000000000000000000000000000000000000000000008152600401610ed9906122e5565b60405180910390fd5b600e82908060018154018082558091505060019003906000526020600020906006020160009091909190915060008201518160000160006101000a81548173ffffffffffffffffffffffffffffffffffffffff021916908373ffffffffffffffffffffffffffffffffffffffff1602179055506020820151816001019080519060200190610f71929190611617565b506040820151816002019080519060200190610f8e92919061169d565b506060820151816003019080519060200190610fab92919061169d565b506080820151816004015560a0820151816005015550505050565b60005b815181101561111e576005828281518110610fe757610fe661251e565b5b602002602001015190806001815401808255809150506001900390600052602060002090600402016000909190919091506000820151816000015560208201518160010160006101000a81548173ffffffffffffffffffffffffffffffffffffffff021916908373ffffffffffffffffffffffffffffffffffffffff1602179055506040820151816002015560608201518160030160006101000a81548160ff02191690831515021790555050506001600660008484815181106110ae576110ad61251e565b5b60200260200101516020015173ffffffffffffffffffffffffffffffffffffffff1673ffffffffffffffffffffffffffffffffffffffff16815260200190815260200160002060006101000a81548160ff02191690831515021790555080806111169061254d565b915050610fc9565b5050565b8073ffffffffffffffffffffffffffffffffffffffff16ff5b60005b60058054905081101561121a578173ffffffffffffffffffffffffffffffffffffffff16600582815481106111765761117561251e565b5b906000526020600020906004020160010160009054906101000a900473ffffffffffffffffffffffffffffffffffffffff1673ffffffffffffffffffffffffffffffffffffffff161415611207576001600582815481106111da576111d961251e565b5b906000526020600020906004020160030160006101000a81548160ff02191690831515021790555061121a565b80806112129061254d565b91505061113e565b5050565b60005b6004805490508110156112fd578173ffffffffffffffffffffffffffffffffffffffff16600482815481106112595761125861251e565b5b906000526020600020906004020160010160009054906101000a900473ffffffffffffffffffffffffffffffffffffffff1673ffffffffffffffffffffffffffffffffffffffff1614156112ea576001600482815481106112bd576112bc61251e565b5b906000526020600020906004020160030160006101000a81548160ff0219169083151502179055506112fd565b80806112f59061254d565b915050611221565b5050565b60005b815181101561148a5760048282815181106113225761132161251e565b5b602002602001015190806001815401808255809150506001900390600052602060002090600402016000909190919091506000820151816000015560208201518160010160006101000a81548173ffffffffffffffffffffffffffffffffffffffff021916908373ffffffffffffffffffffffffffffffffffffffff1602179055506040820151816002015560608201518160030160006101000a81548160ff02191690831515021790555050508181815181106113e3576113e261251e565b5b60200260200101516020015173ffffffffffffffffffffffffffffffffffffffff16632d6d306283838151811061141d5761141c61251e565b5b6020026020010151604001516040518263ffffffff1660e01b81526004016114459190612596565b600060405180830381600087803b15801561145f57600080fd5b505af1158015611473573d6000803e3d6000fd5b5050505080806114829061254d565b915050611304565b5050565b60005b60058054905081101561159b578173ffffffffffffffffffffffffffffffffffffffff16600582815481106114c9576114c861251e565b5b906000526020600020906004020160010160009054906101000a900473ffffffffffffffffffffffffffffffffffffffff1673ffffffffffffffffffffffffffffffffffffffff1614156115885760016005828154811061152d5761152c61251e565b5b906000526020600020906004020160030160006101000a81548160ff0219169083151502179055506115836005828154811061156c5761156b61251e565b5b90600052602060002090600402016002015461159f565b61159b565b80806115939061254d565b915050611491565b5050565b806000800154600060010154826115b691906125b1565b11156115f7576040517f08c379a00000000000000000000000000000000000000000000000000000000081526004016115ee90612679565b60405180910390fd5b816000600101600082825461160c91906125b1565b925050819055505050565b828054611623906121d5565b90600052602060002090601f016020900481019282611645576000855561168c565b82601f1061165e57805160ff191683800117855561168c565b8280016001018555821561168c579182015b8281111561168b578251825591602001919060010190611670565b5b50905061169991906116fd565b5090565b8280548282559060005260206000209081019282156116ec579160200282015b828111156116eb5782518290805190602001906116db929190611617565b50916020019190600101906116bd565b5b5090506116f9919061171a565b5090565b5b808211156117165760008160009055506001016116fe565b5090565b5b8082111561173a5760008181611731919061173e565b5060010161171b565b5090565b50805461174a906121d5565b6000825580601f1061175c575061177b565b601f01602090049060005260206000209081019061177a91906116fd565b5b50565b6000604051905090565b600080fd5b600080fd5b6000819050919050565b6117a581611792565b81146117b057600080fd5b50565b6000813590506117c28161179c565b92915050565b6000602082840312156117de576117dd611788565b5b60006117ec848285016117b3565b91505092915050565b6117fe81611792565b82525050565b600073ffffffffffffffffffffffffffffffffffffffff82169050919050565b600061182f82611804565b9050919050565b61183f81611824565b82525050565b60008115159050919050565b61185a81611845565b82525050565b600060808201905061187560008301876117f5565b6118826020830186611836565b61188f60408301856117f5565b61189c6060830184611851565b95945050505050565b60006118b082611804565b9050919050565b6118c0816118a5565b82525050565b600081519050919050565b600082825260208201905092915050565b60005b838110156119005780820151818401526020810190506118e5565b8381111561190f576000848401525b50505050565b6000601f19601f8301169050919050565b6000611931826118c6565b61193b81856118d1565b935061194b8185602086016118e2565b61195481611915565b840191505092915050565b600060e082019050611974600083018a6117f5565b61198160208301896117f5565b61198e60408301886117f5565b61199b60608301876117f5565b6119a860808301866118b7565b81810360a08301526119ba8185611926565b905081810360c08301526119ce8184611926565b905098975050505050505050565b600080fd5b7f4e487b7100000000000000000000000000000000000000000000000000000000600052604160045260246000fd5b611a1982611915565b810181811067ffffffffffffffff82111715611a3857611a376119e1565b5b80604052505050565b6000611a4b61177e565b9050611a578282611a10565b919050565b600067ffffffffffffffff821115611a7757611a766119e1565b5b602082029050602081019050919050565b600080fd5b600080fd5b600080fd5b611aa081611824565b8114611aab57600080fd5b50565b600081359050611abd81611a97565b92915050565b611acc81611845565b8114611ad757600080fd5b50565b600081359050611ae981611ac3565b92915050565b600060808284031215611b0557611b04611a8d565b5b611b0f6080611a41565b90506000611b1f848285016117b3565b6000830152506020611b3384828501611aae565b6020830152506040611b47848285016117b3565b6040830152506060611b5b84828501611ada565b60608301525092915050565b6000611b7a611b7584611a5c565b611a41565b90508083825260208201905060808402830185811115611b9d57611b9c611a88565b5b835b81811015611bc65780611bb28882611aef565b845260208401935050608081019050611b9f565b5050509392505050565b600082601f830112611be557611be46119dc565b5b8135611bf5848260208601611b67565b91505092915050565b600060208284031215611c1457611c13611788565b5b600082013567ffffffffffffffff811115611c3257611c3161178d565b5b611c3e84828501611bd0565b91505092915050565b6000608082019050611c5c60008301876117f5565b611c6960208301866117f5565b611c7660408301856117f5565b8181036060830152611c888184611926565b905095945050505050565b611c9c816118a5565b8114611ca757600080fd5b50565b600081359050611cb981611c93565b92915050565b600060208284031215611cd557611cd4611788565b5b6000611ce384828501611caa565b91505092915050565b600060208284031215611d0257611d01611788565b5b6000611d1084828501611aae565b91505092915050565b6000608082019050611d2e6000830187611836565b8181036020830152611d408186611926565b9050611d4f60408301856117f5565b611d5c60608301846117f5565b95945050505050565b6000602082019050611d7a6000830184611851565b92915050565b600081519050919050565b600082825260208201905092915050565b6000819050602082019050919050565b611db581611792565b82525050565b611dc481611824565b82525050565b611dd381611845565b82525050565b608082016000820151611def6000850182611dac565b506020820151611e026020850182611dbb565b506040820151611e156040850182611dac565b506060820151611e286060850182611dca565b50505050565b6000611e3a8383611dd9565b60808301905092915050565b6000602082019050919050565b6000611e5e82611d80565b611e688185611d8b565b9350611e7383611d9c565b8060005b83811015611ea4578151611e8b8882611e2e565b9750611e9683611e46565b925050600181019050611e77565b5085935050505092915050565b60006020820190508181036000830152611ecb8184611e53565b905092915050565b600080fd5b600067ffffffffffffffff821115611ef357611ef26119e1565b5b611efc82611915565b9050602081019050919050565b82818337600083830152505050565b6000611f2b611f2684611ed8565b611a41565b905082815260208101848484011115611f4757611f46611ed3565b5b611f52848285611f09565b509392505050565b600082601f830112611f6f57611f6e6119dc565b5b8135611f7f848260208601611f18565b91505092915050565b600067ffffffffffffffff821115611fa357611fa26119e1565b5b602082029050602081019050919050565b6000611fc7611fc284611f88565b611a41565b90508083825260208201905060208402830185811115611fea57611fe9611a88565b5b835b8181101561203157803567ffffffffffffffff81111561200f5761200e6119dc565b5b80860161201c8982611f5a565b85526020850194505050602081019050611fec565b5050509392505050565b600082601f8301126120505761204f6119dc565b5b8135612060848260208601611fb4565b91505092915050565b600060c0828403121561207f5761207e611a8d565b5b61208960c0611a41565b9050600061209984828501611aae565b600083015250602082013567ffffffffffffffff8111156120bd576120bc611a92565b5b6120c984828501611f5a565b602083015250604082013567ffffffffffffffff8111156120ed576120ec611a92565b5b6120f98482850161203b565b604083015250606082013567ffffffffffffffff81111561211d5761211c611a92565b5b6121298482850161203b565b606083015250608061213d848285016117b3565b60808301525060a0612151848285016117b3565b60a08301525092915050565b60006020828403121561217357612172611788565b5b600082013567ffffffffffffffff8111156121915761219061178d565b5b61219d84828501612069565b91505092915050565b7f4e487b7100000000000000000000000000000000000000000000000000000000600052602260045260246000fd5b600060028204905060018216806121ed57607f821691505b60208210811415612201576122006121a6565b5b50919050565b7f4974656d3a2043616c6c6572206973206e6f7420612076616c6964206f72676160008201527f6e697a6174696f6e000000000000000000000000000000000000000000000000602082015250565b60006122636028836118d1565b915061226e82612207565b604082019050919050565b6000602082019050818103600083015261229281612256565b9050919050565b7f4974656d3a2054686973206974656d20686173206265656e2065787069726564600082015250565b60006122cf6020836118d1565b91506122da82612299565b602082019050919050565b600060208201905081810360008301526122fe816122c2565b9050919050565b7f547261636561626c654f626a6563743a204974656d206973206e6f7420696e2060008201527f64657374696e6174696f6e000000000000000000000000000000000000000000602082015250565b6000612361602b836118d1565b915061236c82612305565b604082019050919050565b6000602082019050818103600083015261239081612354565b9050919050565b7f547261636561626c654f626a6563743a207175616e74697479206973206e6f7460008201527f20656e6f75676800000000000000000000000000000000000000000000000000602082015250565b60006123f36027836118d1565b91506123fe82612397565b604082019050919050565b60006020820190508181036000830152612422816123e6565b9050919050565b7f4e487b7100000000000000000000000000000000000000000000000000000000600052601160045260246000fd5b600061246382611792565b915061246e83611792565b92508282101561248157612480612429565b5b828203905092915050565b7f4974656d3a2050726f636564757265446174612063616e206f6e6c792062652060008201527f61646465642062792070726f6465637572650000000000000000000000000000602082015250565b60006124e86032836118d1565b91506124f38261248c565b604082019050919050565b60006020820190508181036000830152612517816124db565b9050919050565b7f4e487b7100000000000000000000000000000000000000000000000000000000600052603260045260246000fd5b600061255882611792565b91507fffffffffffffffffffffffffffffffffffffffffffffffffffffffffffffffff82141561258b5761258a612429565b5b600182019050919050565b60006020820190506125ab60008301846117f5565b92915050565b60006125bc82611792565b91506125c783611792565b9250827fffffffffffffffffffffffffffffffffffffffffffffffffffffffffffffffff038211156125fc576125fb612429565b5b828201905092915050565b7f547261636561626c654f626a6563743a207175616e746974792065786365656460008201527f732070726f6475636564206e756d626572000000000000000000000000000000602082015250565b60006126636031836118d1565b915061266e82612607565b604082019050919050565b6000602082019050818103600083015261269281612656565b905091905056fea2646970667358221220f3140e34067e9ebe5d528935171a9bf01a24044796229a0a6bc989d806ca108b64736f6c63430008090033",
  "linkReferences": {},
  "deployedLinkReferences": {}
}