{
  "_format": "hh-sol-artifact-1",
  "contractName": "Product",
  "sourceName": "contracts/Product.sol",
  "abi": [
    {
      "inputs": [
        {
          "components": [
            {
              "internalType": "uint256",
              "name": "phid",
              "type": "uint256"
            },
            {
              "internalType": "uint256",
              "name": "organizationID",
              "type": "uint256"
            },
            {
              "internalType": "uint256",
              "name": "ownerID",
              "type": "uint256"
            },
            {
              "internalType": "uint256",
              "name": "transactionDate",
              "type": "uint256"
            },
            {
              "internalType": "uint256",
              "name": "expirationDate",
              "type": "uint256"
            },
            {
              "internalType": "address",
              "name": "organization",
              "type": "address"
            },
            {
              "internalType": "address",
              "name": "owner",
              "type": "address"
            },
            {
              "internalType": "string",
              "name": "name",
              "type": "string"
            },
            {
              "internalType": "string",
              "name": "organizationName",
              "type": "string"
            },
            {
              "internalType": "string",
              "name": "ownerName",
              "type": "string"
            }
          ],
          "internalType": "struct Product.ProductData",
          "name": "_productData",
          "type": "tuple"
        },
        {
          "internalType": "uint256",
          "name": "_maxNumber",
          "type": "uint256"
        },
        {
          "internalType": "uint256",
          "name": "_maxPackNumber",
          "type": "uint256"
        },
        {
          "internalType": "string",
          "name": "_unit",
          "type": "string"
        }
      ],
      "stateMutability": "nonpayable",
      "type": "constructor"
    },
    {
      "anonymous": false,
      "inputs": [
        {
          "indexed": true,
          "internalType": "uint256",
          "name": "phid",
          "type": "uint256"
        },
        {
          "indexed": false,
          "internalType": "uint256",
          "name": "organizationID",
          "type": "uint256"
        },
        {
          "indexed": false,
          "internalType": "uint256",
          "name": "ownerID",
          "type": "uint256"
        },
        {
          "indexed": false,
          "internalType": "uint256",
          "name": "number",
          "type": "uint256"
        },
        {
          "indexed": false,
          "internalType": "uint256",
          "name": "packNumber",
          "type": "uint256"
        },
        {
          "indexed": false,
          "internalType": "uint256",
          "name": "transactionDate",
          "type": "uint256"
        },
        {
          "indexed": false,
          "internalType": "uint256",
          "name": "expirationDate",
          "type": "uint256"
        },
        {
          "indexed": false,
          "internalType": "address",
          "name": "organization",
          "type": "address"
        },
        {
          "indexed": false,
          "internalType": "address",
          "name": "owner",
          "type": "address"
        }
      ],
      "name": "ProductCreated",
      "type": "event"
    },
    {
      "anonymous": false,
      "inputs": [
        {
          "indexed": true,
          "internalType": "uint256",
          "name": "phid",
          "type": "uint256"
        },
        {
          "indexed": false,
          "internalType": "uint256",
          "name": "organizationID",
          "type": "uint256"
        },
        {
          "indexed": false,
          "internalType": "uint256",
          "name": "ownerID",
          "type": "uint256"
        },
        {
          "indexed": false,
          "internalType": "uint256",
          "name": "number",
          "type": "uint256"
        },
        {
          "indexed": false,
          "internalType": "uint256",
          "name": "packNumber",
          "type": "uint256"
        },
        {
          "indexed": false,
          "internalType": "uint256",
          "name": "transactionDate",
          "type": "uint256"
        },
        {
          "indexed": false,
          "internalType": "uint256",
          "name": "expirationDate",
          "type": "uint256"
        },
        {
          "indexed": false,
          "internalType": "address",
          "name": "organization",
          "type": "address"
        },
        {
          "indexed": false,
          "internalType": "address",
          "name": "owner",
          "type": "address"
        }
      ],
      "name": "ProductModified",
      "type": "event"
    },
    {
      "inputs": [
        {
          "components": [
            {
              "internalType": "uint256",
              "name": "shid",
              "type": "uint256"
            },
            {
              "internalType": "uint256",
              "name": "phid",
              "type": "uint256"
            },
            {
              "internalType": "address",
              "name": "usedItem",
              "type": "address"
            },
            {
              "internalType": "uint256",
              "name": "usedNumber",
              "type": "uint256"
            }
          ],
          "internalType": "struct Product.UsedItemData[]",
          "name": "_dests",
          "type": "tuple[]"
        }
      ],
      "name": "addDests",
      "outputs": [],
      "stateMutability": "nonpayable",
      "type": "function"
    },
    {
      "inputs": [
        {
          "components": [
            {
              "internalType": "uint256",
              "name": "shid",
              "type": "uint256"
            },
            {
              "internalType": "uint256",
              "name": "phid",
              "type": "uint256"
            },
            {
              "internalType": "address",
              "name": "usedItem",
              "type": "address"
            },
            {
              "internalType": "uint256",
              "name": "usedNumber",
              "type": "uint256"
            }
          ],
          "internalType": "struct Product.UsedItemData[]",
          "name": "_sources",
          "type": "tuple[]"
        }
      ],
      "name": "addSources",
      "outputs": [],
      "stateMutability": "nonpayable",
      "type": "function"
    },
    {
      "inputs": [
        {
          "internalType": "uint256",
          "name": "_number",
          "type": "uint256"
        }
      ],
      "name": "decrease",
      "outputs": [],
      "stateMutability": "nonpayable",
      "type": "function"
    },
    {
      "inputs": [
        {
          "internalType": "address",
          "name": "",
          "type": "address"
        }
      ],
      "name": "destination",
      "outputs": [
        {
          "internalType": "bool",
          "name": "",
          "type": "bool"
        }
      ],
      "stateMutability": "view",
      "type": "function"
    },
    {
      "inputs": [
        {
          "internalType": "uint256",
          "name": "",
          "type": "uint256"
        }
      ],
      "name": "destinationList",
      "outputs": [
        {
          "internalType": "uint256",
          "name": "shid",
          "type": "uint256"
        },
        {
          "internalType": "uint256",
          "name": "phid",
          "type": "uint256"
        },
        {
          "internalType": "address",
          "name": "usedItem",
          "type": "address"
        },
        {
          "internalType": "uint256",
          "name": "usedNumber",
          "type": "uint256"
        }
      ],
      "stateMutability": "view",
      "type": "function"
    },
    {
      "inputs": [
        {
          "components": [
            {
              "internalType": "uint256",
              "name": "phid",
              "type": "uint256"
            },
            {
              "internalType": "uint256",
              "name": "organizationID",
              "type": "uint256"
            },
            {
              "internalType": "uint256",
              "name": "ownerID",
              "type": "uint256"
            },
            {
              "internalType": "uint256",
              "name": "transactionDate",
              "type": "uint256"
            },
            {
              "internalType": "uint256",
              "name": "expirationDate",
              "type": "uint256"
            },
            {
              "internalType": "address",
              "name": "organization",
              "type": "address"
            },
            {
              "internalType": "address",
              "name": "owner",
              "type": "address"
            },
            {
              "internalType": "string",
              "name": "name",
              "type": "string"
            },
            {
              "internalType": "string",
              "name": "organizationName",
              "type": "string"
            },
            {
              "internalType": "string",
              "name": "ownerName",
              "type": "string"
            }
          ],
          "internalType": "struct Product.ProductData",
          "name": "_productData",
          "type": "tuple"
        },
        {
          "internalType": "uint256",
          "name": "_maxNumber",
          "type": "uint256"
        },
        {
          "internalType": "uint256",
          "name": "_maxPackNumber",
          "type": "uint256"
        },
        {
          "internalType": "string",
          "name": "_unit",
          "type": "string"
        }
      ],
      "name": "modify",
      "outputs": [],
      "stateMutability": "nonpayable",
      "type": "function"
    },
    {
      "inputs": [],
      "name": "productData",
      "outputs": [
        {
          "internalType": "uint256",
          "name": "phid",
          "type": "uint256"
        },
        {
          "internalType": "uint256",
          "name": "organizationID",
          "type": "uint256"
        },
        {
          "internalType": "uint256",
          "name": "ownerID",
          "type": "uint256"
        },
        {
          "internalType": "uint256",
          "name": "transactionDate",
          "type": "uint256"
        },
        {
          "internalType": "uint256",
          "name": "expirationDate",
          "type": "uint256"
        },
        {
          "internalType": "address",
          "name": "organization",
          "type": "address"
        },
        {
          "internalType": "address",
          "name": "owner",
          "type": "address"
        },
        {
          "internalType": "string",
          "name": "name",
          "type": "string"
        },
        {
          "internalType": "string",
          "name": "organizationName",
          "type": "string"
        },
        {
          "internalType": "string",
          "name": "ownerName",
          "type": "string"
        }
      ],
      "stateMutability": "view",
      "type": "function"
    },
    {
      "inputs": [],
      "name": "quantity",
      "outputs": [
        {
          "internalType": "uint256",
          "name": "restNumber",
          "type": "uint256"
        },
        {
          "internalType": "uint256",
          "name": "maxNumber",
          "type": "uint256"
        },
        {
          "internalType": "uint256",
          "name": "maxPackNumber",
          "type": "uint256"
        },
        {
          "internalType": "string",
          "name": "unit",
          "type": "string"
        }
      ],
      "stateMutability": "view",
      "type": "function"
    },
    {
      "inputs": [
        {
          "internalType": "uint256",
          "name": "",
          "type": "uint256"
        }
      ],
      "name": "sourceList",
      "outputs": [
        {
          "internalType": "uint256",
          "name": "shid",
          "type": "uint256"
        },
        {
          "internalType": "uint256",
          "name": "phid",
          "type": "uint256"
        },
        {
          "internalType": "address",
          "name": "usedItem",
          "type": "address"
        },
        {
          "internalType": "uint256",
          "name": "usedNumber",
          "type": "uint256"
        }
      ],
      "stateMutability": "view",
      "type": "function"
    }
  ],
  "bytecode": "0x60806040523480156200001157600080fd5b50604051620023a3380380620023a3833981810160405281019062000037919062000666565b836004600082015181600001556020820151816001015560408201518160020155606082015181600301556080820151816004015560a08201518160050160006101000a81548173ffffffffffffffffffffffffffffffffffffffff021916908373ffffffffffffffffffffffffffffffffffffffff16021790555060c08201518160060160006101000a81548173ffffffffffffffffffffffffffffffffffffffff021916908373ffffffffffffffffffffffffffffffffffffffff16021790555060e08201518160070190805190602001906200011892919062000203565b506101008201518160080190805190602001906200013892919062000203565b506101208201518160090190805190602001906200015892919062000203565b509050508260008001819055508260006001018190555080600060030190805190602001906200018a92919062000203565b508160006002018190555083600001517f2e44be3b062890394f7c4e09245118546d55d1b96b76c8558b85b804ab0298b785602001518660400151868689606001518a608001518b60a001518c60c00151604051620001f198979695949392919062000738565b60405180910390a2505050506200082b565b8280546200021190620007f5565b90600052602060002090601f01602090048101928262000235576000855562000281565b82601f106200025057805160ff191683800117855562000281565b8280016001018555821562000281579182015b828111156200028057825182559160200191906001019062000263565b5b50905062000290919062000294565b5090565b5b80821115620002af57600081600090555060010162000295565b5090565b6000604051905090565b600080fd5b600080fd5b600080fd5b6000601f19601f8301169050919050565b7f4e487b7100000000000000000000000000000000000000000000000000000000600052604160045260246000fd5b6200031782620002cc565b810181811067ffffffffffffffff82111715620003395762000338620002dd565b5b80604052505050565b60006200034e620002b3565b90506200035c82826200030c565b919050565b600080fd5b6000819050919050565b6200037b8162000366565b81146200038757600080fd5b50565b6000815190506200039b8162000370565b92915050565b600073ffffffffffffffffffffffffffffffffffffffff82169050919050565b6000620003ce82620003a1565b9050919050565b620003e081620003c1565b8114620003ec57600080fd5b50565b6000815190506200040081620003d5565b92915050565b600080fd5b600080fd5b600067ffffffffffffffff8211156200042e576200042d620002dd565b5b6200043982620002cc565b9050602081019050919050565b60005b838110156200046657808201518184015260208101905062000449565b8381111562000476576000848401525b50505050565b6000620004936200048d8462000410565b62000342565b905082815260208101848484011115620004b257620004b16200040b565b5b620004bf84828562000446565b509392505050565b600082601f830112620004df57620004de62000406565b5b8151620004f18482602086016200047c565b91505092915050565b60006101408284031215620005145762000513620002c7565b5b6200052161014062000342565b9050600062000533848285016200038a565b600083015250602062000549848285016200038a565b60208301525060406200055f848285016200038a565b604083015250606062000575848285016200038a565b60608301525060806200058b848285016200038a565b60808301525060a0620005a184828501620003ef565b60a08301525060c0620005b784828501620003ef565b60c08301525060e082015167ffffffffffffffff811115620005de57620005dd62000361565b5b620005ec84828501620004c7565b60e08301525061010082015167ffffffffffffffff81111562000614576200061362000361565b5b6200062284828501620004c7565b6101008301525061012082015167ffffffffffffffff8111156200064b576200064a62000361565b5b6200065984828501620004c7565b6101208301525092915050565b60008060008060808587031215620006835762000682620002bd565b5b600085015167ffffffffffffffff811115620006a457620006a3620002c2565b5b620006b287828801620004fa565b9450506020620006c5878288016200038a565b9350506040620006d8878288016200038a565b925050606085015167ffffffffffffffff811115620006fc57620006fb620002c2565b5b6200070a87828801620004c7565b91505092959194509250565b620007218162000366565b82525050565b6200073281620003c1565b82525050565b60006101008201905062000750600083018b62000716565b6200075f602083018a62000716565b6200076e604083018962000716565b6200077d606083018862000716565b6200078c608083018762000716565b6200079b60a083018662000716565b620007aa60c083018562000727565b620007b960e083018462000727565b9998505050505050505050565b7f4e487b7100000000000000000000000000000000000000000000000000000000600052602260045260246000fd5b600060028204905060018216806200080e57607f821691505b60208210811415620008255762000824620007c6565b5b50919050565b611b68806200083b6000396000f3fe608060405234801561001057600080fd5b50600436106100935760003560e01c80632f3bd5cd116100665780632f3bd5cd14610124578063aec0be1314610154578063d85a2fae14610187578063d9434590146101ae578063f3f58acb146101ca57610093565b80630465b1b11461009857806317fc45e2146100cb5780631ae2d55e146100ec5780632d6d306214610108575b600080fd5b6100b260048036038101906100ad9190610eff565b6101e6565b6040516100c29493929190610f7c565b60405180910390f35b6100d3610246565b6040516100e3949392919061105a565b60405180910390f35b6101066004803603810190610101919061135b565b6102ec565b005b610122600480360381019061011d9190610eff565b61053d565b005b61013e600480360381019061013991906113fa565b610639565b60405161014b9190611442565b60405180910390f35b61016e60048036038101906101699190610eff565b610659565b60405161017e9493929190610f7c565b60405180910390f35b61018f6106b9565b6040516101a59a9998979695949392919061145d565b60405180910390f35b6101c860048036038101906101c3919061164e565b6108d3565b005b6101e460048036038101906101df919061164e565b610bf2565b005b600f81815481106101f657600080fd5b90600052602060002090600402016000915090508060000154908060010154908060020160009054906101000a900473ffffffffffffffffffffffffffffffffffffffff16908060030154905084565b6000806000015490806001015490806002015490806003018054610269906116c6565b80601f0160208091040260200160405190810160405280929190818152602001828054610295906116c6565b80156102e25780601f106102b7576101008083540402835291602001916102e2565b820191906000526020600020905b8154815290600101906020018083116102c557829003601f168201915b5050505050905084565b600460050160009054906101000a900473ffffffffffffffffffffffffffffffffffffffff1673ffffffffffffffffffffffffffffffffffffffff163373ffffffffffffffffffffffffffffffffffffffff161461037f576040517f08c379a00000000000000000000000000000000000000000000000000000000081526004016103769061176a565b60405180910390fd5b836004600082015181600001556020820151816001015560408201518160020155606082015181600301556080820151816004015560a08201518160050160006101000a81548173ffffffffffffffffffffffffffffffffffffffff021916908373ffffffffffffffffffffffffffffffffffffffff16021790555060c08201518160060160006101000a81548173ffffffffffffffffffffffffffffffffffffffff021916908373ffffffffffffffffffffffffffffffffffffffff16021790555060e082015181600701908051906020019061045e929190610e12565b5061010082015181600801908051906020019061047c929190610e12565b5061012082015181600901908051906020019061049a929190610e12565b509050508260008001819055508260006001018190555080600060030190805190602001906104ca929190610e12565b508160006002018190555083600001517f2e44be3b062890394f7c4e09245118546d55d1b96b76c8558b85b804ab0298b785602001518660400151868689606001518a608001518b60a001518c60c0015160405161052f98979695949392919061178a565b60405180910390a250505050565b3360011515601060008373ffffffffffffffffffffffffffffffffffffffff1673ffffffffffffffffffffffffffffffffffffffff16815260200190815260200160002060009054906101000a900460ff161515146105d1576040517f08c379a00000000000000000000000000000000000000000000000000000000081526004016105c890611854565b60405180910390fd5b816000800154811115610619576040517f08c379a0000000000000000000000000000000000000000000000000000000008152600401610610906118c0565b60405180910390fd5b8260008001600082825461062d919061190f565b92505081905550505050565b60106020528060005260406000206000915054906101000a900460ff1681565b600e818154811061066957600080fd5b90600052602060002090600402016000915090508060000154908060010154908060020160009054906101000a900473ffffffffffffffffffffffffffffffffffffffff16908060030154905084565b60048060000154908060010154908060020154908060030154908060040154908060050160009054906101000a900473ffffffffffffffffffffffffffffffffffffffff16908060060160009054906101000a900473ffffffffffffffffffffffffffffffffffffffff1690806007018054610734906116c6565b80601f0160208091040260200160405190810160405280929190818152602001828054610760906116c6565b80156107ad5780601f10610782576101008083540402835291602001916107ad565b820191906000526020600020905b81548152906001019060200180831161079057829003601f168201915b5050505050908060080180546107c2906116c6565b80601f01602080910402602001604051908101604052809291908181526020018280546107ee906116c6565b801561083b5780601f106108105761010080835404028352916020019161083b565b820191906000526020600020905b81548152906001019060200180831161081e57829003601f168201915b505050505090806009018054610850906116c6565b80601f016020809104026020016040519081016040528092919081815260200182805461087c906116c6565b80156108c95780601f1061089e576101008083540402835291602001916108c9565b820191906000526020600020905b8154815290600101906020018083116108ac57829003601f168201915b505050505090508a565b600460050160009054906101000a900473ffffffffffffffffffffffffffffffffffffffff1673ffffffffffffffffffffffffffffffffffffffff163373ffffffffffffffffffffffffffffffffffffffff1614610966576040517f08c379a000000000000000000000000000000000000000000000000000000000815260040161095d9061176a565b60405180910390fd5b60048001544211156109ad576040517f08c379a00000000000000000000000000000000000000000000000000000000081526004016109a49061198f565b60405180910390fd5b60005b8151811015610bee57600e8282815181106109ce576109cd6119af565b5b60200260200101519080600181540180825580915050600190039060005260206000209060040201600090919091909150600082015181600001556020820151816001015560408201518160020160006101000a81548173ffffffffffffffffffffffffffffffffffffffff021916908373ffffffffffffffffffffffffffffffffffffffff1602179055506060820151816003015550506000828281518110610a7b57610a7a6119af565b5b60200260200101516040015173ffffffffffffffffffffffffffffffffffffffff16838381518110610ab057610aaf6119af565b5b602002602001015160600151604051602401610acc91906119de565b6040516020818303038152906040527f448a33c1000000000000000000000000000000000000000000000000000000007bffffffffffffffffffffffffffffffffffffffffffffffffffffffff19166020820180517bffffffffffffffffffffffffffffffffffffffffffffffffffffffff8381831617835250505050604051610b569190611a40565b600060405180830381855af49150503d8060008114610b91576040519150601f19603f3d011682016040523d82523d6000602084013e610b96565b606091505b5050905080610bda576040517f08c379a0000000000000000000000000000000000000000000000000000000008152600401610bd190611ac9565b60405180910390fd5b508080610be690611ae9565b9150506109b0565b5050565b600460050160009054906101000a900473ffffffffffffffffffffffffffffffffffffffff1673ffffffffffffffffffffffffffffffffffffffff163373ffffffffffffffffffffffffffffffffffffffff1614610c85576040517f08c379a0000000000000000000000000000000000000000000000000000000008152600401610c7c9061176a565b60405180910390fd5b6004800154421115610ccc576040517f08c379a0000000000000000000000000000000000000000000000000000000008152600401610cc39061198f565b60405180910390fd5b60005b8151811015610e0e57600f828281518110610ced57610cec6119af565b5b60200260200101519080600181540180825580915050600190039060005260206000209060040201600090919091909150600082015181600001556020820151816001015560408201518160020160006101000a81548173ffffffffffffffffffffffffffffffffffffffff021916908373ffffffffffffffffffffffffffffffffffffffff160217905550606082015181600301555050600160106000848481518110610d9e57610d9d6119af565b5b60200260200101516040015173ffffffffffffffffffffffffffffffffffffffff1673ffffffffffffffffffffffffffffffffffffffff16815260200190815260200160002060006101000a81548160ff0219169083151502179055508080610e0690611ae9565b915050610ccf565b5050565b828054610e1e906116c6565b90600052602060002090601f016020900481019282610e405760008555610e87565b82601f10610e5957805160ff1916838001178555610e87565b82800160010185558215610e87579182015b82811115610e86578251825591602001919060010190610e6b565b5b509050610e949190610e98565b5090565b5b80821115610eb1576000816000905550600101610e99565b5090565b6000604051905090565b600080fd5b600080fd5b6000819050919050565b610edc81610ec9565b8114610ee757600080fd5b50565b600081359050610ef981610ed3565b92915050565b600060208284031215610f1557610f14610ebf565b5b6000610f2384828501610eea565b91505092915050565b610f3581610ec9565b82525050565b600073ffffffffffffffffffffffffffffffffffffffff82169050919050565b6000610f6682610f3b565b9050919050565b610f7681610f5b565b82525050565b6000608082019050610f916000830187610f2c565b610f9e6020830186610f2c565b610fab6040830185610f6d565b610fb86060830184610f2c565b95945050505050565b600081519050919050565b600082825260208201905092915050565b60005b83811015610ffb578082015181840152602081019050610fe0565b8381111561100a576000848401525b50505050565b6000601f19601f8301169050919050565b600061102c82610fc1565b6110368185610fcc565b9350611046818560208601610fdd565b61104f81611010565b840191505092915050565b600060808201905061106f6000830187610f2c565b61107c6020830186610f2c565b6110896040830185610f2c565b818103606083015261109b8184611021565b905095945050505050565b600080fd5b7f4e487b7100000000000000000000000000000000000000000000000000000000600052604160045260246000fd5b6110e382611010565b810181811067ffffffffffffffff82111715611102576111016110ab565b5b80604052505050565b6000611115610eb5565b905061112182826110da565b919050565b600080fd5b61113481610f5b565b811461113f57600080fd5b50565b6000813590506111518161112b565b92915050565b600080fd5b600080fd5b600067ffffffffffffffff82111561117c5761117b6110ab565b5b61118582611010565b9050602081019050919050565b82818337600083830152505050565b60006111b46111af84611161565b61110b565b9050828152602081018484840111156111d0576111cf61115c565b5b6111db848285611192565b509392505050565b600082601f8301126111f8576111f7611157565b5b81356112088482602086016111a1565b91505092915050565b60006101408284031215611228576112276110a6565b5b61123361014061110b565b9050600061124384828501610eea565b600083015250602061125784828501610eea565b602083015250604061126b84828501610eea565b604083015250606061127f84828501610eea565b606083015250608061129384828501610eea565b60808301525060a06112a784828501611142565b60a08301525060c06112bb84828501611142565b60c08301525060e082013567ffffffffffffffff8111156112df576112de611126565b5b6112eb848285016111e3565b60e08301525061010082013567ffffffffffffffff8111156113105761130f611126565b5b61131c848285016111e3565b6101008301525061012082013567ffffffffffffffff81111561134257611341611126565b5b61134e848285016111e3565b6101208301525092915050565b6000806000806080858703121561137557611374610ebf565b5b600085013567ffffffffffffffff81111561139357611392610ec4565b5b61139f87828801611211565b94505060206113b087828801610eea565b93505060406113c187828801610eea565b925050606085013567ffffffffffffffff8111156113e2576113e1610ec4565b5b6113ee878288016111e3565b91505092959194509250565b6000602082840312156114105761140f610ebf565b5b600061141e84828501611142565b91505092915050565b60008115159050919050565b61143c81611427565b82525050565b60006020820190506114576000830184611433565b92915050565b600061014082019050611473600083018d610f2c565b611480602083018c610f2c565b61148d604083018b610f2c565b61149a606083018a610f2c565b6114a76080830189610f2c565b6114b460a0830188610f6d565b6114c160c0830187610f6d565b81810360e08301526114d38186611021565b90508181036101008301526114e88185611021565b90508181036101208301526114fd8184611021565b90509b9a5050505050505050505050565b600067ffffffffffffffff821115611529576115286110ab565b5b602082029050602081019050919050565b600080fd5b600060808284031215611555576115546110a6565b5b61155f608061110b565b9050600061156f84828501610eea565b600083015250602061158384828501610eea565b602083015250604061159784828501611142565b60408301525060606115ab84828501610eea565b60608301525092915050565b60006115ca6115c58461150e565b61110b565b905080838252602082019050608084028301858111156115ed576115ec61153a565b5b835b818110156116165780611602888261153f565b8452602084019350506080810190506115ef565b5050509392505050565b600082601f83011261163557611634611157565b5b81356116458482602086016115b7565b91505092915050565b60006020828403121561166457611663610ebf565b5b600082013567ffffffffffffffff81111561168257611681610ec4565b5b61168e84828501611620565b91505092915050565b7f4e487b7100000000000000000000000000000000000000000000000000000000600052602260045260246000fd5b600060028204905060018216806116de57607f821691505b602082108114156116f2576116f1611697565b5b50919050565b7f4974656d3a2043616c6c6572206973206e6f7420612076616c6964206f72676160008201527f6e697a6174696f6e000000000000000000000000000000000000000000000000602082015250565b6000611754602883610fcc565b915061175f826116f8565b604082019050919050565b6000602082019050818103600083015261178381611747565b9050919050565b6000610100820190506117a0600083018b610f2c565b6117ad602083018a610f2c565b6117ba6040830189610f2c565b6117c76060830188610f2c565b6117d46080830187610f2c565b6117e160a0830186610f2c565b6117ee60c0830185610f6d565b6117fb60e0830184610f6d565b9998505050505050505050565b7f4974656d3a204974656d206973206e6f7420696e2064657374696e6174696f6e600082015250565b600061183e602083610fcc565b915061184982611808565b602082019050919050565b6000602082019050818103600083015261186d81611831565b9050919050565b7f4974656d3a207175616e74697479206973206e6f7420656e6f75676800000000600082015250565b60006118aa601c83610fcc565b91506118b582611874565b602082019050919050565b600060208201905081810360008301526118d98161189d565b9050919050565b7f4e487b7100000000000000000000000000000000000000000000000000000000600052601160045260246000fd5b600061191a82610ec9565b915061192583610ec9565b925082821015611938576119376118e0565b5b828203905092915050565b7f4974656d3a2054686973206974656d20686173206265656e2065787069726564600082015250565b6000611979602083610fcc565b915061198482611943565b602082019050919050565b600060208201905081810360008301526119a88161196c565b9050919050565b7f4e487b7100000000000000000000000000000000000000000000000000000000600052603260045260246000fd5b60006020820190506119f36000830184610f2c565b92915050565b600081519050919050565b600081905092915050565b6000611a1a826119f9565b611a248185611a04565b9350611a34818560208601610fdd565b80840191505092915050565b6000611a4c8284611a0f565b915081905092915050565b7f4974656d3a204661696c20746f2061646420736f757263652064756520746f2060008201527f64656372656173696e67206661696c0000000000000000000000000000000000602082015250565b6000611ab3602f83610fcc565b9150611abe82611a57565b604082019050919050565b60006020820190508181036000830152611ae281611aa6565b9050919050565b6000611af482610ec9565b91507fffffffffffffffffffffffffffffffffffffffffffffffffffffffffffffffff821415611b2757611b266118e0565b5b60018201905091905056fea26469706673582212209228bef6c84c94f589b5a9c61630aceb21d260f268a926091824575b53cbf8d864736f6c63430008090033",
  "linkReferences": {},
  "deployedLinkReferences": {}
}