{
  "_format": "hh-sol-artifact-1",
  "contractName": "Product",
  "sourceName": "contracts/Product.sol",
  "abi": [
    {
      "inputs": [
        {
          "components": [
            {
              "internalType": "uint256",
              "name": "phid",
              "type": "uint256"
            },
            {
              "internalType": "uint256",
              "name": "organizationID",
              "type": "uint256"
            },
            {
              "internalType": "uint256",
              "name": "ownerID",
              "type": "uint256"
            },
            {
              "internalType": "uint256",
              "name": "transactionDate",
              "type": "uint256"
            },
            {
              "internalType": "uint256",
              "name": "expirationDate",
              "type": "uint256"
            },
            {
              "internalType": "address payable",
              "name": "organization",
              "type": "address"
            },
            {
              "internalType": "address",
              "name": "owner",
              "type": "address"
            },
            {
              "internalType": "string",
              "name": "name",
              "type": "string"
            },
            {
              "internalType": "string",
              "name": "organizationName",
              "type": "string"
            },
            {
              "internalType": "string",
              "name": "ownerName",
              "type": "string"
            }
          ],
          "internalType": "struct Product.ProductData",
          "name": "_productData",
          "type": "tuple"
        },
        {
          "components": [
            {
              "internalType": "uint256",
              "name": "producedNumber",
              "type": "uint256"
            },
            {
              "internalType": "uint256",
              "name": "restNumber",
              "type": "uint256"
            },
            {
              "internalType": "uint256",
              "name": "packNumber",
              "type": "uint256"
            },
            {
              "internalType": "string",
              "name": "unit",
              "type": "string"
            }
          ],
          "internalType": "struct TraceableObject.Quantity",
          "name": "_quantity",
          "type": "tuple"
        }
      ],
      "stateMutability": "nonpayable",
      "type": "constructor"
    },
    {
      "anonymous": false,
      "inputs": [
        {
          "indexed": true,
          "internalType": "uint256",
          "name": "phid",
          "type": "uint256"
        },
        {
          "indexed": false,
          "internalType": "uint256",
          "name": "producedNumber",
          "type": "uint256"
        },
        {
          "indexed": false,
          "internalType": "uint256",
          "name": "packNumber",
          "type": "uint256"
        },
        {
          "indexed": false,
          "internalType": "uint256",
          "name": "transactionDate",
          "type": "uint256"
        },
        {
          "indexed": false,
          "internalType": "uint256",
          "name": "expirationDate",
          "type": "uint256"
        },
        {
          "indexed": false,
          "internalType": "address",
          "name": "organization",
          "type": "address"
        },
        {
          "indexed": false,
          "internalType": "address",
          "name": "owner",
          "type": "address"
        }
      ],
      "name": "ProductCreated",
      "type": "event"
    },
    {
      "inputs": [
        {
          "components": [
            {
              "internalType": "uint256",
              "name": "id",
              "type": "uint256"
            },
            {
              "internalType": "address",
              "name": "usedObject",
              "type": "address"
            },
            {
              "internalType": "uint256",
              "name": "usedNumber",
              "type": "uint256"
            },
            {
              "internalType": "bool",
              "name": "isDeleted",
              "type": "bool"
            }
          ],
          "internalType": "struct TraceableObject.TraceData[]",
          "name": "_dests",
          "type": "tuple[]"
        }
      ],
      "name": "addDests",
      "outputs": [],
      "stateMutability": "nonpayable",
      "type": "function"
    },
    {
      "inputs": [
        {
          "components": [
            {
              "internalType": "uint256",
              "name": "id",
              "type": "uint256"
            },
            {
              "internalType": "address",
              "name": "usedObject",
              "type": "address"
            },
            {
              "internalType": "uint256",
              "name": "usedNumber",
              "type": "uint256"
            },
            {
              "internalType": "bool",
              "name": "isDeleted",
              "type": "bool"
            }
          ],
          "internalType": "struct TraceableObject.TraceData[]",
          "name": "_sources",
          "type": "tuple[]"
        }
      ],
      "name": "addSources",
      "outputs": [],
      "stateMutability": "nonpayable",
      "type": "function"
    },
    {
      "inputs": [
        {
          "internalType": "uint256",
          "name": "_number",
          "type": "uint256"
        }
      ],
      "name": "decrease",
      "outputs": [],
      "stateMutability": "nonpayable",
      "type": "function"
    },
    {
      "inputs": [
        {
          "internalType": "address",
          "name": "_object",
          "type": "address"
        }
      ],
      "name": "delDest",
      "outputs": [],
      "stateMutability": "nonpayable",
      "type": "function"
    },
    {
      "inputs": [
        {
          "internalType": "address",
          "name": "_object",
          "type": "address"
        }
      ],
      "name": "delSource",
      "outputs": [],
      "stateMutability": "nonpayable",
      "type": "function"
    },
    {
      "inputs": [
        {
          "internalType": "uint256",
          "name": "",
          "type": "uint256"
        }
      ],
      "name": "destinationList",
      "outputs": [
        {
          "internalType": "uint256",
          "name": "id",
          "type": "uint256"
        },
        {
          "internalType": "address",
          "name": "usedObject",
          "type": "address"
        },
        {
          "internalType": "uint256",
          "name": "usedNumber",
          "type": "uint256"
        },
        {
          "internalType": "bool",
          "name": "isDeleted",
          "type": "bool"
        }
      ],
      "stateMutability": "view",
      "type": "function"
    },
    {
      "inputs": [
        {
          "internalType": "address payable",
          "name": "to",
          "type": "address"
        }
      ],
      "name": "destruct",
      "outputs": [],
      "stateMutability": "nonpayable",
      "type": "function"
    },
    {
      "inputs": [],
      "name": "getDestinationList",
      "outputs": [
        {
          "components": [
            {
              "internalType": "uint256",
              "name": "id",
              "type": "uint256"
            },
            {
              "internalType": "address",
              "name": "usedObject",
              "type": "address"
            },
            {
              "internalType": "uint256",
              "name": "usedNumber",
              "type": "uint256"
            },
            {
              "internalType": "bool",
              "name": "isDeleted",
              "type": "bool"
            }
          ],
          "internalType": "struct TraceableObject.TraceData[]",
          "name": "",
          "type": "tuple[]"
        }
      ],
      "stateMutability": "view",
      "type": "function"
    },
    {
      "inputs": [],
      "name": "getSourceList",
      "outputs": [
        {
          "components": [
            {
              "internalType": "uint256",
              "name": "id",
              "type": "uint256"
            },
            {
              "internalType": "address",
              "name": "usedObject",
              "type": "address"
            },
            {
              "internalType": "uint256",
              "name": "usedNumber",
              "type": "uint256"
            },
            {
              "internalType": "bool",
              "name": "isDeleted",
              "type": "bool"
            }
          ],
          "internalType": "struct TraceableObject.TraceData[]",
          "name": "",
          "type": "tuple[]"
        }
      ],
      "stateMutability": "view",
      "type": "function"
    },
    {
      "inputs": [
        {
          "internalType": "address",
          "name": "",
          "type": "address"
        }
      ],
      "name": "isDestination",
      "outputs": [
        {
          "internalType": "bool",
          "name": "",
          "type": "bool"
        }
      ],
      "stateMutability": "view",
      "type": "function"
    },
    {
      "inputs": [],
      "name": "productData",
      "outputs": [
        {
          "internalType": "uint256",
          "name": "phid",
          "type": "uint256"
        },
        {
          "internalType": "uint256",
          "name": "organizationID",
          "type": "uint256"
        },
        {
          "internalType": "uint256",
          "name": "ownerID",
          "type": "uint256"
        },
        {
          "internalType": "uint256",
          "name": "transactionDate",
          "type": "uint256"
        },
        {
          "internalType": "uint256",
          "name": "expirationDate",
          "type": "uint256"
        },
        {
          "internalType": "address payable",
          "name": "organization",
          "type": "address"
        },
        {
          "internalType": "address",
          "name": "owner",
          "type": "address"
        },
        {
          "internalType": "string",
          "name": "name",
          "type": "string"
        },
        {
          "internalType": "string",
          "name": "organizationName",
          "type": "string"
        },
        {
          "internalType": "string",
          "name": "ownerName",
          "type": "string"
        }
      ],
      "stateMutability": "view",
      "type": "function"
    },
    {
      "inputs": [],
      "name": "quantity",
      "outputs": [
        {
          "internalType": "uint256",
          "name": "producedNumber",
          "type": "uint256"
        },
        {
          "internalType": "uint256",
          "name": "restNumber",
          "type": "uint256"
        },
        {
          "internalType": "uint256",
          "name": "packNumber",
          "type": "uint256"
        },
        {
          "internalType": "string",
          "name": "unit",
          "type": "string"
        }
      ],
      "stateMutability": "view",
      "type": "function"
    },
    {
      "inputs": [
        {
          "internalType": "uint256",
          "name": "",
          "type": "uint256"
        }
      ],
      "name": "sourceList",
      "outputs": [
        {
          "internalType": "uint256",
          "name": "id",
          "type": "uint256"
        },
        {
          "internalType": "address",
          "name": "usedObject",
          "type": "address"
        },
        {
          "internalType": "uint256",
          "name": "usedNumber",
          "type": "uint256"
        },
        {
          "internalType": "bool",
          "name": "isDeleted",
          "type": "bool"
        }
      ],
      "stateMutability": "view",
      "type": "function"
    }
  ],
  "bytecode": "0x60806040523480156200001157600080fd5b506040516200274438038062002744833981810160405281019062000037919062000752565b816007600082015181600001556020820151816001015560408201518160020155606082015181600301556080820151816004015560a08201518160050160006101000a81548173ffffffffffffffffffffffffffffffffffffffff021916908373ffffffffffffffffffffffffffffffffffffffff16021790555060c08201518160060160006101000a81548173ffffffffffffffffffffffffffffffffffffffff021916908373ffffffffffffffffffffffffffffffffffffffff16021790555060e08201518160070190805190602001906200011892919062000206565b506101008201518160080190805190602001906200013892919062000206565b506101208201518160090190805190602001906200015892919062000206565b50905050806000808201518160000155602082015181600101556040820151816002015560608201518160030190805190602001906200019a92919062000206565b5090505081600001517f9b343c3a8d8e02e4039054f3ff042cf823962601bcac8485a94955695bbd179282600001518360400151856060015186608001518760a001518860c00151604051620001f69695949392919062000864565b60405180910390a2505062000936565b828054620002149062000900565b90600052602060002090601f01602090048101928262000238576000855562000284565b82601f106200025357805160ff191683800117855562000284565b8280016001018555821562000284579182015b828111156200028357825182559160200191906001019062000266565b5b50905062000293919062000297565b5090565b5b80821115620002b257600081600090555060010162000298565b5090565b6000604051905090565b600080fd5b600080fd5b600080fd5b6000601f19601f8301169050919050565b7f4e487b7100000000000000000000000000000000000000000000000000000000600052604160045260246000fd5b6200031a82620002cf565b810181811067ffffffffffffffff821117156200033c576200033b620002e0565b5b80604052505050565b600062000351620002b6565b90506200035f82826200030f565b919050565b600080fd5b6000819050919050565b6200037e8162000369565b81146200038a57600080fd5b50565b6000815190506200039e8162000373565b92915050565b600073ffffffffffffffffffffffffffffffffffffffff82169050919050565b6000620003d182620003a4565b9050919050565b620003e381620003c4565b8114620003ef57600080fd5b50565b6000815190506200040381620003d8565b92915050565b60006200041682620003a4565b9050919050565b620004288162000409565b81146200043457600080fd5b50565b60008151905062000448816200041d565b92915050565b600080fd5b600080fd5b600067ffffffffffffffff821115620004765762000475620002e0565b5b6200048182620002cf565b9050602081019050919050565b60005b83811015620004ae57808201518184015260208101905062000491565b83811115620004be576000848401525b50505050565b6000620004db620004d58462000458565b62000345565b905082815260208101848484011115620004fa57620004f962000453565b5b620005078482856200048e565b509392505050565b600082601f8301126200052757620005266200044e565b5b815162000539848260208601620004c4565b91505092915050565b600061014082840312156200055c576200055b620002ca565b5b6200056961014062000345565b905060006200057b848285016200038d565b600083015250602062000591848285016200038d565b6020830152506040620005a7848285016200038d565b6040830152506060620005bd848285016200038d565b6060830152506080620005d3848285016200038d565b60808301525060a0620005e984828501620003f2565b60a08301525060c0620005ff8482850162000437565b60c08301525060e082015167ffffffffffffffff81111562000626576200062562000364565b5b62000634848285016200050f565b60e08301525061010082015167ffffffffffffffff8111156200065c576200065b62000364565b5b6200066a848285016200050f565b6101008301525061012082015167ffffffffffffffff81111562000693576200069262000364565b5b620006a1848285016200050f565b6101208301525092915050565b600060808284031215620006c757620006c6620002ca565b5b620006d3608062000345565b90506000620006e5848285016200038d565b6000830152506020620006fb848285016200038d565b602083015250604062000711848285016200038d565b604083015250606082015167ffffffffffffffff81111562000738576200073762000364565b5b62000746848285016200050f565b60608301525092915050565b600080604083850312156200076c576200076b620002c0565b5b600083015167ffffffffffffffff8111156200078d576200078c620002c5565b5b6200079b8582860162000542565b925050602083015167ffffffffffffffff811115620007bf57620007be620002c5565b5b620007cd85828601620006ae565b9150509250929050565b620007e28162000369565b82525050565b6000819050919050565b6000620008136200080d6200080784620003a4565b620007e8565b620003a4565b9050919050565b60006200082782620007f2565b9050919050565b60006200083b826200081a565b9050919050565b6200084d816200082e565b82525050565b6200085e8162000409565b82525050565b600060c0820190506200087b6000830189620007d7565b6200088a6020830188620007d7565b620008996040830187620007d7565b620008a86060830186620007d7565b620008b7608083018562000842565b620008c660a083018462000853565b979650505050505050565b7f4e487b7100000000000000000000000000000000000000000000000000000000600052602260045260246000fd5b600060028204905060018216806200091957607f821691505b6020821081141562000930576200092f620008d1565b5b50919050565b611dfe80620009466000396000f3fe608060405234801561001057600080fd5b50600436106100cf5760003560e01c80638649524a1161008c578063aec0be1311610066578063aec0be1314610200578063b1eed2f914610233578063cb5d372a14610251578063d85a2fae1461026f576100cf565b80638649524a14610198578063a49a5d0c146101b4578063aaaae342146101d0576100cf565b80630465b1b1146100d45780630c69707a1461010757806317fc45e2146101235780631beb2615146101445780632d6d3062146101605780635b81d2e21461017c575b600080fd5b6100ee60048036038101906100e99190611279565b610296565b6040516100fe9493929190611311565b60405180910390f35b610121600480360381019061011c9190611584565b610303565b005b61012b6103ea565b60405161013b9493929190611655565b60405180910390f35b61015e600480360381019061015991906116df565b610490565b005b61017a60048036038101906101759190611279565b61052f565b005b6101966004803603810190610191919061170c565b61062d565b005b6101b260048036038101906101ad9190611584565b6106cc565b005b6101ce60048036038101906101c9919061170c565b6107b3565b005b6101ea60048036038101906101e5919061170c565b610852565b6040516101f79190611739565b60405180910390f35b61021a60048036038101906102159190611279565b610872565b60405161022a9493929190611311565b60405180910390f35b61023b6108df565b6040516102489190611885565b60405180910390f35b6102596109c3565b6040516102669190611885565b60405180910390f35b610277610aa7565b60405161028d9a999897969594939291906118b6565b60405180910390f35b600581815481106102a657600080fd5b90600052602060002090600402016000915090508060000154908060010160009054906101000a900473ffffffffffffffffffffffffffffffffffffffff16908060020154908060030160009054906101000a900460ff16905084565b600760050160009054906101000a900473ffffffffffffffffffffffffffffffffffffffff1673ffffffffffffffffffffffffffffffffffffffff163373ffffffffffffffffffffffffffffffffffffffff1614610396576040517f08c379a000000000000000000000000000000000000000000000000000000000815260040161038d906119d9565b60405180910390fd5b6007600401544211156103de576040517f08c379a00000000000000000000000000000000000000000000000000000000081526004016103d590611a45565b60405180910390fd5b6103e781610cc1565b50565b600080600001549080600101549080600201549080600301805461040d90611a94565b80601f016020809104026020016040519081016040528092919081815260200182805461043990611a94565b80156104865780601f1061045b57610100808354040283529160200191610486565b820191906000526020600020905b81548152906001019060200180831161046957829003601f168201915b5050505050905084565b600760050160009054906101000a900473ffffffffffffffffffffffffffffffffffffffff1673ffffffffffffffffffffffffffffffffffffffff163373ffffffffffffffffffffffffffffffffffffffff1614610523576040517f08c379a000000000000000000000000000000000000000000000000000000000815260040161051a906119d9565b60405180910390fd5b61052c81610e1d565b50565b3360011515600660008373ffffffffffffffffffffffffffffffffffffffff1673ffffffffffffffffffffffffffffffffffffffff16815260200190815260200160002060009054906101000a900460ff161515146105c3576040517f08c379a00000000000000000000000000000000000000000000000000000000081526004016105ba90611b38565b60405180910390fd5b8160006001015481111561060c576040517f08c379a000000000000000000000000000000000000000000000000000000000815260040161060390611bca565b60405180910390fd5b82600060010160008282546106219190611c19565b92505081905550505050565b600760050160009054906101000a900473ffffffffffffffffffffffffffffffffffffffff1673ffffffffffffffffffffffffffffffffffffffff163373ffffffffffffffffffffffffffffffffffffffff16146106c0576040517f08c379a00000000000000000000000000000000000000000000000000000000081526004016106b7906119d9565b60405180910390fd5b6106c981610e36565b50565b600760050160009054906101000a900473ffffffffffffffffffffffffffffffffffffffff1673ffffffffffffffffffffffffffffffffffffffff163373ffffffffffffffffffffffffffffffffffffffff161461075f576040517f08c379a0000000000000000000000000000000000000000000000000000000008152600401610756906119d9565b60405180910390fd5b6007600401544211156107a7576040517f08c379a000000000000000000000000000000000000000000000000000000000815260040161079e90611a45565b60405180910390fd5b6107b081610f19565b50565b600760050160009054906101000a900473ffffffffffffffffffffffffffffffffffffffff1673ffffffffffffffffffffffffffffffffffffffff163373ffffffffffffffffffffffffffffffffffffffff1614610846576040517f08c379a000000000000000000000000000000000000000000000000000000000815260040161083d906119d9565b60405180910390fd5b61084f816110a6565b50565b60066020528060005260406000206000915054906101000a900460ff1681565b6004818154811061088257600080fd5b90600052602060002090600402016000915090508060000154908060010160009054906101000a900473ffffffffffffffffffffffffffffffffffffffff16908060020154908060030160009054906101000a900460ff16905084565b60606005805480602002602001604051908101604052809291908181526020016000905b828210156109ba5783829060005260206000209060040201604051806080016040529081600082015481526020016001820160009054906101000a900473ffffffffffffffffffffffffffffffffffffffff1673ffffffffffffffffffffffffffffffffffffffff1673ffffffffffffffffffffffffffffffffffffffff168152602001600282015481526020016003820160009054906101000a900460ff16151515158152505081526020019060010190610903565b50505050905090565b60606004805480602002602001604051908101604052809291908181526020016000905b82821015610a9e5783829060005260206000209060040201604051806080016040529081600082015481526020016001820160009054906101000a900473ffffffffffffffffffffffffffffffffffffffff1673ffffffffffffffffffffffffffffffffffffffff1673ffffffffffffffffffffffffffffffffffffffff168152602001600282015481526020016003820160009054906101000a900460ff161515151581525050815260200190600101906109e7565b50505050905090565b60078060000154908060010154908060020154908060030154908060040154908060050160009054906101000a900473ffffffffffffffffffffffffffffffffffffffff16908060060160009054906101000a900473ffffffffffffffffffffffffffffffffffffffff1690806007018054610b2290611a94565b80601f0160208091040260200160405190810160405280929190818152602001828054610b4e90611a94565b8015610b9b5780601f10610b7057610100808354040283529160200191610b9b565b820191906000526020600020905b815481529060010190602001808311610b7e57829003601f168201915b505050505090806008018054610bb090611a94565b80601f0160208091040260200160405190810160405280929190818152602001828054610bdc90611a94565b8015610c295780601f10610bfe57610100808354040283529160200191610c29565b820191906000526020600020905b815481529060010190602001808311610c0c57829003601f168201915b505050505090806009018054610c3e90611a94565b80601f0160208091040260200160405190810160405280929190818152602001828054610c6a90611a94565b8015610cb75780601f10610c8c57610100808354040283529160200191610cb7565b820191906000526020600020905b815481529060010190602001808311610c9a57829003601f168201915b505050505090508a565b60005b8151811015610e19576005828281518110610ce257610ce1611c4d565b5b602002602001015190806001815401808255809150506001900390600052602060002090600402016000909190919091506000820151816000015560208201518160010160006101000a81548173ffffffffffffffffffffffffffffffffffffffff021916908373ffffffffffffffffffffffffffffffffffffffff1602179055506040820151816002015560608201518160030160006101000a81548160ff0219169083151502179055505050600160066000848481518110610da957610da8611c4d565b5b60200260200101516020015173ffffffffffffffffffffffffffffffffffffffff1673ffffffffffffffffffffffffffffffffffffffff16815260200190815260200160002060006101000a81548160ff0219169083151502179055508080610e1190611c7c565b915050610cc4565b5050565b8073ffffffffffffffffffffffffffffffffffffffff16ff5b60005b600480549050811015610f15578173ffffffffffffffffffffffffffffffffffffffff1660048281548110610e7157610e70611c4d565b5b906000526020600020906004020160010160009054906101000a900473ffffffffffffffffffffffffffffffffffffffff1673ffffffffffffffffffffffffffffffffffffffff161415610f0257600160048281548110610ed557610ed4611c4d565b5b906000526020600020906004020160030160006101000a81548160ff021916908315150217905550610f15565b8080610f0d90611c7c565b915050610e39565b5050565b60005b81518110156110a2576004828281518110610f3a57610f39611c4d565b5b602002602001015190806001815401808255809150506001900390600052602060002090600402016000909190919091506000820151816000015560208201518160010160006101000a81548173ffffffffffffffffffffffffffffffffffffffff021916908373ffffffffffffffffffffffffffffffffffffffff1602179055506040820151816002015560608201518160030160006101000a81548160ff0219169083151502179055505050818181518110610ffb57610ffa611c4d565b5b60200260200101516020015173ffffffffffffffffffffffffffffffffffffffff16632d6d306283838151811061103557611034611c4d565b5b6020026020010151604001516040518263ffffffff1660e01b815260040161105d9190611cc5565b600060405180830381600087803b15801561107757600080fd5b505af115801561108b573d6000803e3d6000fd5b50505050808061109a90611c7c565b915050610f1c565b5050565b60005b6005805490508110156111b3578173ffffffffffffffffffffffffffffffffffffffff16600582815481106110e1576110e0611c4d565b5b906000526020600020906004020160010160009054906101000a900473ffffffffffffffffffffffffffffffffffffffff1673ffffffffffffffffffffffffffffffffffffffff1614156111a05760016005828154811061114557611144611c4d565b5b906000526020600020906004020160030160006101000a81548160ff02191690831515021790555061119b6005828154811061118457611183611c4d565b5b9060005260206000209060040201600201546111b7565b6111b3565b80806111ab90611c7c565b9150506110a9565b5050565b806000800154600060010154826111ce9190611ce0565b111561120f576040517f08c379a000000000000000000000000000000000000000000000000000000000815260040161120690611da8565b60405180910390fd5b81600060010160008282546112249190611ce0565b925050819055505050565b6000604051905090565b600080fd5b600080fd5b6000819050919050565b61125681611243565b811461126157600080fd5b50565b6000813590506112738161124d565b92915050565b60006020828403121561128f5761128e611239565b5b600061129d84828501611264565b91505092915050565b6112af81611243565b82525050565b600073ffffffffffffffffffffffffffffffffffffffff82169050919050565b60006112e0826112b5565b9050919050565b6112f0816112d5565b82525050565b60008115159050919050565b61130b816112f6565b82525050565b600060808201905061132660008301876112a6565b61133360208301866112e7565b61134060408301856112a6565b61134d6060830184611302565b95945050505050565b600080fd5b6000601f19601f8301169050919050565b7f4e487b7100000000000000000000000000000000000000000000000000000000600052604160045260246000fd5b6113a48261135b565b810181811067ffffffffffffffff821117156113c3576113c261136c565b5b80604052505050565b60006113d661122f565b90506113e2828261139b565b919050565b600067ffffffffffffffff8211156114025761140161136c565b5b602082029050602081019050919050565b600080fd5b600080fd5b611426816112d5565b811461143157600080fd5b50565b6000813590506114438161141d565b92915050565b611452816112f6565b811461145d57600080fd5b50565b60008135905061146f81611449565b92915050565b60006080828403121561148b5761148a611418565b5b61149560806113cc565b905060006114a584828501611264565b60008301525060206114b984828501611434565b60208301525060406114cd84828501611264565b60408301525060606114e184828501611460565b60608301525092915050565b60006115006114fb846113e7565b6113cc565b9050808382526020820190506080840283018581111561152357611522611413565b5b835b8181101561154c57806115388882611475565b845260208401935050608081019050611525565b5050509392505050565b600082601f83011261156b5761156a611356565b5b813561157b8482602086016114ed565b91505092915050565b60006020828403121561159a57611599611239565b5b600082013567ffffffffffffffff8111156115b8576115b761123e565b5b6115c484828501611556565b91505092915050565b600081519050919050565b600082825260208201905092915050565b60005b838110156116075780820151818401526020810190506115ec565b83811115611616576000848401525b50505050565b6000611627826115cd565b61163181856115d8565b93506116418185602086016115e9565b61164a8161135b565b840191505092915050565b600060808201905061166a60008301876112a6565b61167760208301866112a6565b61168460408301856112a6565b8181036060830152611696818461161c565b905095945050505050565b60006116ac826112b5565b9050919050565b6116bc816116a1565b81146116c757600080fd5b50565b6000813590506116d9816116b3565b92915050565b6000602082840312156116f5576116f4611239565b5b6000611703848285016116ca565b91505092915050565b60006020828403121561172257611721611239565b5b600061173084828501611434565b91505092915050565b600060208201905061174e6000830184611302565b92915050565b600081519050919050565b600082825260208201905092915050565b6000819050602082019050919050565b61178981611243565b82525050565b611798816112d5565b82525050565b6117a7816112f6565b82525050565b6080820160008201516117c36000850182611780565b5060208201516117d6602085018261178f565b5060408201516117e96040850182611780565b5060608201516117fc606085018261179e565b50505050565b600061180e83836117ad565b60808301905092915050565b6000602082019050919050565b600061183282611754565b61183c818561175f565b935061184783611770565b8060005b8381101561187857815161185f8882611802565b975061186a8361181a565b92505060018101905061184b565b5085935050505092915050565b6000602082019050818103600083015261189f8184611827565b905092915050565b6118b0816116a1565b82525050565b6000610140820190506118cc600083018d6112a6565b6118d9602083018c6112a6565b6118e6604083018b6112a6565b6118f3606083018a6112a6565b61190060808301896112a6565b61190d60a08301886118a7565b61191a60c08301876112e7565b81810360e083015261192c818661161c565b9050818103610100830152611941818561161c565b9050818103610120830152611956818461161c565b90509b9a5050505050505050505050565b7f4974656d3a2043616c6c6572206973206e6f7420612076616c6964206f72676160008201527f6e697a6174696f6e000000000000000000000000000000000000000000000000602082015250565b60006119c36028836115d8565b91506119ce82611967565b604082019050919050565b600060208201905081810360008301526119f2816119b6565b9050919050565b7f4974656d3a2054686973206974656d20686173206265656e2065787069726564600082015250565b6000611a2f6020836115d8565b9150611a3a826119f9565b602082019050919050565b60006020820190508181036000830152611a5e81611a22565b9050919050565b7f4e487b7100000000000000000000000000000000000000000000000000000000600052602260045260246000fd5b60006002820490506001821680611aac57607f821691505b60208210811415611ac057611abf611a65565b5b50919050565b7f547261636561626c654f626a6563743a204974656d206973206e6f7420696e2060008201527f64657374696e6174696f6e000000000000000000000000000000000000000000602082015250565b6000611b22602b836115d8565b9150611b2d82611ac6565b604082019050919050565b60006020820190508181036000830152611b5181611b15565b9050919050565b7f547261636561626c654f626a6563743a207175616e74697479206973206e6f7460008201527f20656e6f75676800000000000000000000000000000000000000000000000000602082015250565b6000611bb46027836115d8565b9150611bbf82611b58565b604082019050919050565b60006020820190508181036000830152611be381611ba7565b9050919050565b7f4e487b7100000000000000000000000000000000000000000000000000000000600052601160045260246000fd5b6000611c2482611243565b9150611c2f83611243565b925082821015611c4257611c41611bea565b5b828203905092915050565b7f4e487b7100000000000000000000000000000000000000000000000000000000600052603260045260246000fd5b6000611c8782611243565b91507fffffffffffffffffffffffffffffffffffffffffffffffffffffffffffffffff821415611cba57611cb9611bea565b5b600182019050919050565b6000602082019050611cda60008301846112a6565b92915050565b6000611ceb82611243565b9150611cf683611243565b9250827fffffffffffffffffffffffffffffffffffffffffffffffffffffffffffffffff03821115611d2b57611d2a611bea565b5b828201905092915050565b7f547261636561626c654f626a6563743a207175616e746974792065786365656460008201527f732070726f6475636564206e756d626572000000000000000000000000000000602082015250565b6000611d926031836115d8565b9150611d9d82611d36565b604082019050919050565b60006020820190508181036000830152611dc181611d85565b905091905056fea2646970667358221220a3477d4ae979bd152ddc5a24d5dba715fb5a4f6e5eb23bc1ea3ed41d2d8b937d64736f6c63430008090033",
  "linkReferences": {},
  "deployedLinkReferences": {}
}